:100000000C942A000C9447000C9447000C94470071
:100010000C9447000C9447000C9447000C94470044
:100020000C9447000C9447000C9447000C943A1A27
:100030000C948E190C9447000C9447000C944700C4
:100040000C9447000C9447000C9447000C94470014
:100050000C94470011241FBECFE5D8E0DEBFCDBF12
:1000600011E0A0E6B0E0ECE4FEE302C005900D92E2
:10007000A437B107D9F711E0A4E7B1E001C01D92A0
:10008000AA37B107E1F70E94161D0C94241F0C94A7
:100090000000EF92FF920F931F937B018C0120E0F1
:1000A00030E040E05FE40E949D0488238CF0C801AA
:1000B000B70120E030E040E05FE40E9469020E9466
:1000C0005B059B01AC01205030404040504806C0C9
:1000D000C801B7010E945B059B01AC01B901CA01CF
:1000E0001F910F91FF90EF900895A0E0B0E0EBE733
:1000F000F0E00C94ED1E7B018C0120E030E040E844
:100100005FE30E94CD0488234CF4AA24BB24CC24B2
:10011000DD24EE24FF2400E010E086C0C801B70112
:1001200020E030E040E85FE40E94CD04882354F4EE
:10013000C801B7010E9449005B016C01EE24FF2455
:10014000870172C0C801B70120E030E040E85FE5F8
:100150000E94CD0487FD0FC0AA24AA94BB24BA94A0
:10016000CC24CA94DD24DA94EE24EA94FF24FA9491
:100170000FEF1FEF59C0C801B70120E030E040E8A1
:100180005FE20E94C7027B018C01222433242101FB
:1001900090E1A92EB12CC12CD12CC0E0D0E061E0BF
:1001A00070E080E090E00A2C04C0660F771F881F83
:1001B000991F0A94D2F70E94AF053B014C01C80178
:1001C000B701A40193010E949D04882364F02A28AA
:1001D0003B284C285D28C801B701A40193010E9467
:1001E000C1037B018C01D694C794B794A794219640
:1001F000C530D105A1F6C801B70120E030E040E8E4
:100200005FE40E94C7020E9449005B016C019B01F0
:10021000A60160E070E080E090E0022D0E942806D8
:1002200059016A017B018C019501A601B701C80142
:10023000CDB7DEB7E2E10C94091FA0E0B0E0E3E245
:10024000F1E00C94ED1EDC012B01FA019C9192303F
:1002500008F439C1EB018881823008F433C194304D
:1002600069F4843009F02FC111969C91119789810E
:10027000981709F428C1A0E6B0E025C1843009F43C
:1002800021C18230A9F4923009F01DC19A01AD015B
:1002900088E0EA010990AE01E90109929E018150CE
:1002A000C1F7E201898111969C918923818308C15C
:1002B000923009F407C112962D903C901397EB01F0
:1002C0008A819B811496AD90BD90CD90DC9017975C
:1002D000EC80FD800E811F819101281B390BB90133
:1002E00037FF04C066277727621B730B60327105E6
:1002F0000CF061C0121613066CF537014801062E8A
:1003000004C096948794779467940A94D2F721E076
:1003100030E040E050E004C0220F331F441F551F5F
:100320006A95D2F721503040404050402E213F2165
:1003300040235123211531054105510521F021E0CC
:1003400030E040E050E079018A01E628F7280829EA
:1003500019293CC0232BD1F1260E371E3501460149
:10036000062E04C096948794779467940A94D2F7E3
:1003700021E030E040E050E004C0220F331F441F72
:10038000551F6A95D2F721503040404050402A21F5
:100390003B214C215D21211531054105510521F0FD
:1003A00021E030E040E050E059016A01A628B7287A
:1003B000C828D9280BC0821593052CF01C01AA244B
:1003C000BB24650103C0EE24FF24870111969C9194
:1003D000D20111968C91981709F445C0992339F0F0
:1003E000A80197012A193B094C095D0906C0A6011D
:1003F00095012E193F09400B510B57FD08C0118282
:100400003382228224833583468357831DC081E053
:1004100081833382228288279927DC01821B930BF8
:10042000A40BB50B84839583A683B7830DC0220FDD
:10043000331F441F551F248335834683578382818E
:1004400093810197938382832481358146815781EB
:10045000DA01C9010197A109B1098F5F9F4FAF4F21
:10046000BF4328F30BC0918333822282EA0CFB1C2A
:100470000C1D1D1DE482F5820683178383E08083B3
:10048000248135814681578157FF1AC0C901AA27A7
:1004900097FDA095BA2F81709070A070B07056959E
:1004A000479537952795822B932BA42BB52B8483C7
:1004B0009583A683B78382819381019693838283F8
:1004C000DF0101C0D201CD01CDB7DEB7E2E10C946E
:1004D000091FA0E2B0E0EFE6F2E00C94F91E698398
:1004E0007A838B839C832D833E834F835887E9E0F7
:1004F000EE2EF12CEC0EFD1ECE010196B7010E94EE
:10050000CB078E010F5E1F4FCE010596B8010E94EA
:10051000CB078A8991E089278A8BC701B801AE0190
:10052000475E5F4F0E941D010E94F606A096E6E01E
:100530000C94151FA0E2B0E0E0EAF2E00C94F91E82
:1005400069837A838B839C832D833E834F83588773
:10055000F9E0EF2EF12CEC0EFD1ECE010196B70155
:100560000E94CB078E010F5E1F4FCE010596B8018A
:100570000E94CB07C701B801AE01475E5F4F0E94E2
:100580001D010E94F606A096E6E00C94151FA0E25D
:10059000B0E0EDECF2E00C94ED1E69837A838B837E
:1005A0009C832D833E834F835887CE010196BE01E5
:1005B000675F7F4F0E94CB07CE010596BE016F5E3D
:1005C0007F4F0E94CB079985923088F089898230CD
:1005D000C8F0943019F4823051F404C0843029F406
:1005E000923081F480E690E0C6C0923049F420E079
:1005F0009A858A89981321E02A87CE010996BBC083
:10060000823049F420E09A858A89981321E02A8B68
:10061000CE014196B0C02D843E844F8458886D88A9
:100620007E888F88988CEE24FF248701AA24BB241F
:10063000650140E050E060E070E0E0E0F0E0C10122
:1006400081709070892BE9F0E60CF71C081D191DCC
:100650009A01AB012A0D3B1D4C1D5D1D80E090E011
:10066000A0E0B0E0E614F7040805190520F481E0E5
:1006700090E0A0E0B0E0BA01A901480F591F6A1F3D
:100680007B1FAA0CBB1CCC1CDD1C97FE08C081E0A4
:1006900090E0A0E0B0E0A82AB92ACA2ADB2A319665
:1006A000E032F10549F0660C771C881C991C5694C1
:1006B000479437942794C3CFFA85EA892B893C89DC
:1006C0008B859C85280F391F2E5F3F4F17C0CA01AD
:1006D00081709070892B61F016950795F794E794D7
:1006E00080E090E0A0E0B0E8E82AF92A0A2B1B2B72
:1006F00076956795579547952F5F3F4F77FDE7CFE5
:100700000CC0440F551F661F771F17FD4160EE0C8C
:10071000FF1C001F111F21503040403090E059074E
:1007200090E0690790E4790760F32B8F3C8FDB0141
:10073000CA018F779070A070B07080349105A105C8
:10074000B10561F447FD0AC0E114F104010511058A
:1007500029F0405C5F4F6F4F7F4F40781A8EFE1735
:1007600011F081E08A8F4D8F5E8F6F8F78A383E0C9
:10077000898FCE0149960E94F606A096E2E10C947C
:10078000091FA8E1B0E0E7ECF3E00C94F51E6983E3
:100790007A838B839C832D833E834F835887B9E074
:1007A000EB2EF12CEC0EFD1ECE010196B7010E943E
:1007B000CB078E010F5E1F4FCE010596B8010E9438
:1007C000CB072985223008F47EC03989323010F4F5
:1007D000B8017CC08A859A8989278A87243011F0DC
:1007E000223031F4231709F06EC060E670E06EC06D
:1007F000343039F41D861E861F86188A1C861B8697
:1008000004C0323021F484E08987B7015FC02B85B2
:100810003C858B899C89281B390B3C872B87ED8471
:10082000FE840F851889AD88BE88CF88D88CEA14DD
:10083000FB040C051D0540F4EE0CFF1C001F111FEE
:10084000215030403C872B8720E030E040E050E0F2
:1008500080E090E0A0E0B0E460E070E0EA14FB0427
:100860000C051D0540F0282B392B4A2B5B2BEA1871
:10087000FB080C091D09B695A79597958795EE0C71
:10088000FF1C001F111F6F5F7F4F6F31710531F724
:10089000DA01C9018F779070A070B0708034910533
:1008A000A105B10561F427FD0AC0E114F1040105B9
:1008B000110529F0205C3F4F4F4F5F4F20782D8767
:1008C0003E874F87588BBE01675F7F4FCB010E94E9
:1008D000F6066896EAE00C94111FA8E1B0E0E3E7A1
:1008E000F4E00C94F91E69837A838B839C832D83B7
:1008F0003E834F83588789E0E82EF12CEC0EFD1ED5
:10090000CE010196B7010E94CB078E010F5E1F4FEB
:10091000CE010596B8010E94CB078985823040F050
:100920008989823028F0C701B8010E94430801C0BC
:100930008FEF6896E6E00C94151FA8E1B0E0E3EABB
:10094000F4E00C94F91E69837A838B839C832D8356
:100950003E834F83588789E0E82EF12CEC0EFD1E74
:10096000CE010196B7010E94CB078E010F5E1F4F8B
:10097000CE010596B8010E94CB078985823040F0F0
:100980008989823028F0C701B8010E94430801C05C
:100990008FEF6896E6E00C94151FA8E1B0E0E3ED58
:1009A000F4E00C94F91E69837A838B839C832D83F6
:1009B0003E834F83588789E0E82EF12CEC0EFD1E14
:1009C000CE010196B7010E94CB078E010F5E1F4F2B
:1009D000CE010596B8010E94CB078985823040F090
:1009E0008989823028F0C701B8010E94430801C0FC
:1009F00081E06896E6E00C94151FA8E0B0E0E3E023
:100A0000F5E00C94F61E9B01AC0183E08983DA01CA
:100A1000C9018827B7FD83959927AA27BB27B82E38
:100A2000211531054105510519F482E089833AC049
:100A30008823A9F0203080E0380780E0480780E86C
:100A4000580729F460E070E080E09FEC30C0EE24AD
:100A5000FF248701E21AF30A040B150B02C0790187
:100A60008A018EE1C82ED12CDC82CB82ED82FE82FF
:100A70000F831887C801B7010E94A70601971816AF
:100A8000190684F4082E04C0EE0CFF1C001F111F71
:100A90000A94D2F7ED82FE820F831887C81AD90A0A
:100AA000DC82CB82BA82CE0101960E94F60628969D
:100AB000E9E00C94121FACE0B0E0E1E6F5E00C9444
:100AC000FD1E69837A838B839C83CE010196BE01D0
:100AD0006B5F7F4F0E94CB078D81823061F1823046
:100AE00050F1843021F48E81882351F12EC02F8162
:100AF000388537FD20C06E812F3131051CF066230B
:100B0000F9F023C08EE190E0821B930B29853A8592
:100B10004B855C8504C056954795379527958A95F2
:100B2000D2F76623B1F050954095309521953F4F0F
:100B30004F4F5F4F0EC020E030E040E050E009C072
:100B40002FEF3FEF4FEF5FE704C020E030E040E0E1
:100B500050E8B901CA012C96E2E00C94191FA8E0F4
:100B6000B0E0E5EBF5E00C94F51E7B018C0161151E
:100B700071058105910519F482E0898360C083E0E5
:100B800089838EE1C82ED12CDC82CB82ED82FE825D
:100B90000F831887C801B7010E94A706FC0131978F
:100BA000F7FF3BC0222733272E1B3F0B570168015D
:100BB000022E04C0D694C794B794A7940A94D2F78F
:100BC00040E050E060E070E081E090E0A0E0B0E064
:100BD00004C0880F991FAA1FBB1F2A95D2F701973F
:100BE000A109B1098E219F21A023B1230097A1055E
:100BF000B10521F041E050E060E070E04A295B2956
:100C00006C297D294D835E836F8378878EE190E028
:100C10008E1B9F0B9C838B8312C0309781F00E2E0E
:100C200004C0EE0CFF1C001F111F0A94D2F7ED82C6
:100C3000FE820F831887CE1ADF0ADC82CB821A82EB
:100C4000CE0101960E94F6062896EAE00C94111F48
:100C5000EF92FF920F93DF93CF93CDB7DEB76097FC
:100C60000FB6F894DEBF0FBECDBFA82F002309F446
:100C700061C07E010894E11CF11C88E0F70111922B
:100C80008A95E9F729833A834B835C836D837E835E
:100C9000AF83988780E2801BE82FFF27E7FDF09560
:100CA00049815A816B817C81181684F019861A86D5
:100CB0001B861C86882799278E1B9F0B04C0440F18
:100CC000551F661F771F8A95D2F728C0202F33271C
:100CD00027FD3095DB01CA01022E04C0880F991F41
:100CE000AA1FBB1F0A94D2F789879A87AB87BC8754
:100CF00004C07695679557954795EA95D2F78D810B
:100D00009E81AF81B88504C0880F991FAA1FBB1FA1
:100D10002A95D2F7482B592B6A2B7B2B4D875E8760
:100D20006F87788B29853A854B855C856D857E85B7
:100D3000AF8598898A2F60960FB6F894DEBF0FBEF4
:100D4000CDBFCF91DF910F91FF90EF900895EF927B
:100D5000FF920F931F937B018C0180E0E81680E0E7
:100D6000F80681E0080780E0180788F48FEFE8169E
:100D7000F1040105110531F028F088E090E0A0E0D1
:100D8000B0E017C080E090E0A0E0B0E012C080E0EA
:100D9000E81680E0F80680E0080781E0180728F0F0
:100DA00088E190E0A0E0B0E004C080E190E0A0E045
:100DB000B0E020E230E040E050E0281B390B4A0B65
:100DC0005B0B04C016950795F794E7948A95D2F7C4
:100DD000F701E859FF4F8081281B3109410951096A
:100DE000C9011F910F91FF90EF900895DF92EF924C
:100DF000FF920F931F93FC01E480F5800681178119
:100E0000D1808081823048F480E090E0A0E1B0E0C1
:100E1000E82AF92A0A2B1B2BA5C0843009F49FC0AD
:100E2000823021F4EE24FF24870105C0E114F1048F
:100E30000105110519F4E0E0F0E096C062817381CC
:100E40009FEF623879070CF05BC022E83FEF261B6A
:100E5000370B2A3131052CF020E030E040E050E043
:100E60002AC0B801A701022E04C076956795579550
:100E700047950A94D2F781E090E0A0E0B0E004C08A
:100E8000880F991FAA1FBB1F2A95D2F70197A109A6
:100E9000B1098E219F21A023B1230097A105B1059F
:100EA00021F081E090E0A0E0B0E09A01AB01282BB6
:100EB000392B4A2B5B2BDA01C9018F779070A07018
:100EC000B07080349105A105B10539F427FF09C040
:100ED000205C3F4F4F4F5F4F04C0215C3F4F4F4F4F
:100EE0005F4FE0E0F0E02030A0E03A07A0E04A07E2
:100EF000A0E45A0710F0E1E0F0E079018A0127C090
:100F00006038710564F5FB01E158FF4FD801C70156
:100F10008F779070A070B07080349105A105B105F5
:100F200039F4E7FE0DC080E490E0A0E0B0E004C03A
:100F30008FE390E0A0E0B0E0E80EF91E0A1F1B1F4F
:100F400017FF05C016950795F794E794319687E04B
:100F500016950795F794E7948A95D1F705C0EE2486
:100F6000FF248701EFEFF0E06E2F67956627679506
:100F7000902F9F77D794DD24D7948E2F8695492F75
:100F8000462B582F5D29B701CA011F910F91FF9081
:100F9000EF90DF900895FC01DB01408151812281B7
:100FA000622F6F7770E0221F2227221F9381892FE3
:100FB000880F822B282F30E0991F9927991F1196AF
:100FC0009C93119721153105A9F54115510561052E
:100FD000710511F482E037C082E89FEF13969C936D
:100FE0008E9312979A01AB0167E0220F331F441FC3
:100FF000551F6A95D1F783E08C930DC0220F331FE4
:10100000441F551F12968D919C911397019713962B
:101010009C938E931297203080E0380780E0480739
:1010200080E4580758F314962D933D934D935C93A9
:10103000179708952F3F310579F441155105610542
:10104000710519F484E08C93089564FF03C081E076
:101050008C9312C01C9210C02F57304013963C93B3
:101060002E93129783E08C9387E0440F551F661FE1
:10107000771F8A95D1F7706414964D935D936D93A5
:101080007C93179708951F93DC01FB019C9192308C
:1010900008F447C08081823008F443C0943051F492
:1010A00011961C91843099F58181682F70E0611B45
:1010B00071093FC0843021F0923031F48230B9F1AF
:1010C0008181882389F12DC011961C91119782305E
:1010D000F1F081811817D9F412962D913C91139754
:1010E000828193818217930794F028173907BCF007
:1010F00014968D919D910D90BC91A02D24813581E8
:1011000046815781281739074A075B0718F41123CE
:1011100041F00AC082179307A407B50740F41123D2
:1011200019F061E070E005C06FEF7FEF02C060E092
:1011300070E0CB011F910895DF93CF9300D000D0D2
:101140000F92CDB7DEB78B836C838B810E94E20850
:101150008B838B818F7789839E012E5F3F4F81E048
:1011600067E0A9010E9456178A811D82882311F425
:1011700081E08D838D818A838A81879588278795F1
:101180008A839A818981892B89838981982F909577
:101190008C81692F0E94E7170F900F900F900F908E
:1011A0000F90CF91DF910895DF93CF930F92CDB73A
:1011B000DEB7898389816FEF0E94E7170F90CF9187
:1011C000DF910895DF93CF93CDB7DEB760970FB669
:1011D000F894DEBF0FBECDBF8B87CE0101969D87F1
:1011E0008C87EAE6F1E0FF87EE87FAE0F88BEE8580
:1011F000FF8500808E859F8501969F878E87EC8571
:10120000FD8500828C859D8501969D878C879889B8
:101210009150988BE889EE2351F78B85282F30E089
:10122000CE010196FC01E20FF31F808160960FB69C
:10123000F894DEBF0FBECDBFCF91DF910895DF934D
:10124000CF9300D000D0CDB7DEB78A8319828A81D0
:10125000282F30E03C832B838B819C81803191054A
:1012600009F41CC12B813C81213131050CF05BC09C
:101270008B819C818830910509F4E0C02B813C81F1
:10128000293031055CF58B819C818430910509F40E
:10129000BDC02B813C81253031059CF48B819C8124
:1012A0008230910509F4A6C02B813C8123303105A1
:1012B0000CF0A6C08B819C818130910509F494C00B
:1012C00053C12B813C812630310509F4ABC08B81A1
:1012D0009C81873091050CF0ABC09EC02B813C8176
:1012E0002C30310509F4C2C08B819C818D30910571
:1012F0006CF42B813C812A30310509F4ABC08B8121
:101300009C818B3091050CF0ABC09EC02B813C8141
:101310002E30310509F4B6C08B819C818F30910548
:101320000CF0B6C0A9C02B813C812831310509F4ED
:10133000E5C08B819C81893191052CF52B813C8105
:101340002431310509F4C2C08B819C81853191051E
:101350006CF42B813C812231310509F4ABC08B81C7
:101360009C81833191050CF0ABC09EC02B813C81E8
:101370002631310509F4B6C08B819C8187319105F6
:101380000CF0B6C0A9C02B813C812C31310509F489
:10139000CDC08B819C818D3191056CF42B813C817A
:1013A0002A31310509F4B6C08B819C818B319105BE
:1013B0000CF0B6C0A9C02B813C812E31310509F457
:1013C000C1C08B819C818E3191050CF4B5C02B81FD
:1013D0003C812F31310509F4BBC08B819C81803267
:1013E000910509F4BBC0C0C081E060E041E00E940B
:1013F0004716BCC081E061E041E00E944716B6C0DC
:1014000081E062E041E00E944716B0C081E063E005
:1014100041E00E944716AAC081E064E041E00E94DA
:101420004716A4C081E065E041E00E9447169EC0D7
:1014300081E066E041E00E94471698C081E067E0E5
:1014400041E00E94471692C082E060E041E00E94C5
:1014500047168CC082E061E041E00E94471686C0DA
:1014600082E062E041E00E94471680C082E063E0D3
:1014700041E00E9447167AC082E064E041E00E94A9
:10148000471674C082E065E041E00E9447166EC0D6
:1014900082E066E041E00E94471668C082E067E0B3
:1014A00041E00E94471662C083E060E041E00E9494
:1014B00047165CC083E061E041E00E94471656C0D9
:1014C00083E062E041E00E94471650C083E063E0A1
:1014D00041E00E9447164AC083E064E041E00E9478
:1014E000471644C083E065E041E00E9447163EC0D5
:1014F00083E066E041E00E94471638C083E067E081
:1015000041E00E94471632C084E060E041E00E9462
:1015100047162CC084E061E041E00E94471626C0D7
:1015200084E062E041E00E94471620C084E063E06E
:1015300041E00E9447161AC084E064E041E00E9446
:10154000471614C084E065E041E00E9447160EC0D3
:1015500084E066E041E00E94471608C084E067E04E
:1015600041E00E94471602C081E0898389810F9083
:101570000F900F900F90CF91DF910895DF93CF934D
:1015800000D000D0CDB7DEB78A8319828A81282F98
:1015900030E03C832B838B819C818031910509F461
:1015A0001CC12B813C81213131050CF05BC08B814A
:1015B0009C818830910509F4E0C02B813C81293061
:1015C00031055CF58B819C818430910509F4BDC0A7
:1015D0002B813C81253031059CF48B819C818230AC
:1015E000910509F4A6C02B813C81233031050CF014
:1015F000A6C08B819C818130910509F494C053C1B0
:101600002B813C812630310509F4ABC08B819C8154
:10161000873091050CF0ABC09EC02B813C812C30F3
:10162000310509F4C2C08B819C818D3091056CF429
:101630002B813C812A30310509F4ABC08B819C8120
:101640008B3091050CF0ABC09EC02B813C812E30BD
:10165000310509F4B6C08B819C818F3091050CF067
:10166000B6C0A9C02B813C812831310509F4E5C001
:101670008B819C81893191052CF52B813C81243112
:10168000310509F4C2C08B819C81853191056CF4D0
:101690002B813C812231310509F4ABC08B819C81C7
:1016A000833191050CF0ABC09EC02B813C8126316B
:1016B000310509F4B6C08B819C81873191050CF00E
:1016C000B6C0A9C02B813C812C31310509F4CDC0B5
:1016D0008B819C818D3191056CF42B813C812A3169
:1016E000310509F4B6C08B819C818B3191050CF0DA
:1016F000B6C0A9C02B813C812E31310509F4C1C08F
:101700008B819C818E3191050CF4B5C02B813C817D
:101710002F31310509F4BBC08B819C81803291054A
:1017200009F4BBC0C0C081E060E042E00E945D0CF3
:10173000BCC081E061E042E00E945D0CB6C081E087
:1017400062E042E00E945D0CB0C081E063E042E0F4
:101750000E945D0CAAC081E064E042E00E945D0C42
:10176000A4C081E065E042E00E945D0C9EC081E083
:1017700066E042E00E945D0C98C081E067E042E0D4
:101780000E945D0C92C082E060E042E00E945D0C2D
:101790008CC082E061E042E00E945D0C86C082E085
:1017A00062E042E00E945D0C80C082E063E042E0C3
:1017B0000E945D0C7AC082E064E042E00E945D0C11
:1017C00074C082E065E042E00E945D0C6EC082E081
:1017D00066E042E00E945D0C68C082E067E042E0A3
:1017E0000E945D0C62C083E060E042E00E945D0CFC
:1017F0005CC083E061E042E00E945D0C56C083E083
:1018000062E042E00E945D0C50C083E063E042E091
:101810000E945D0C4AC083E064E042E00E945D0CDF
:1018200044C083E065E042E00E945D0C3EC083E07E
:1018300066E042E00E945D0C38C083E067E042E071
:101840000E945D0C32C084E060E042E00E945D0CCA
:101850002CC084E061E042E00E945D0C26C084E080
:1018600062E042E00E945D0C20C084E063E042E060
:101870000E945D0C1AC084E064E042E00E945D0CAE
:1018800014C084E065E042E00E945D0C0EC084E07C
:1018900066E042E00E945D0C08C084E067E042E040
:1018A0000E945D0C02C081E0898389810F900F90B6
:1018B0000F900F90CF91DF910895DF93CF9300D0D9
:1018C0000F92CDB7DEB789836A834B838B818230D9
:1018D00031F489816A8140E00E94471608C08B81FB
:1018E000813029F489816A8141E00E9447160F9076
:1018F0000F900F90CF91DF910895AF92BF92CF924A
:10190000DF92EF92FF920F931F93DF93CF93CDB7A8
:10191000DEB72C970FB6F894DEBF0FBECDBF698738
:101920007A878B879C8724EB30E040E050E0898504
:101930009A85AB85BC8579018A01E81AF90A0A0BF8
:101940001B0BD801C70124E338E040E050E0BC01A4
:10195000CD010E94AE1EDC01CB01BC01CD010E9475
:10196000AF05DC01CB01BC01CD0120E030E044E358
:1019700053EC0E94C103DC01CB01BC01CD0120E08E
:1019800030E64FE155E40E949A02DC01CB01BC0134
:10199000CD010E947500A22EB32EC42ED52EE62EA8
:1019A000F72E082F192FA982BA82CB82DC82ED8212
:1019B000FE820F83188789819A810E94921C2C963F
:1019C0000FB6F894DEBF0FBECDBFCF91DF911F9150
:1019D0000F91FF90EF90DF90CF90BF90AF90089560
:1019E000AF92BF92CF92DF92EF92FF920F931F932D
:1019F000DF93CF93CDB7DEB72C970FB6F894DEBF49
:101A00000FBECDBF69877A878B879C8789859A852A
:101A1000AB85BC85865A9F4FAF4FBF4F89879A874A
:101A2000AB87BC8724EB30E040E050E089859A85A5
:101A3000AB85BC8579018A01E81AF90A0A0B1B0BF0
:101A4000D801C70124E338E040E050E0BC01CD01FB
:101A50000E94AE1EDC01CB01BC01CD010E94FD0441
:101A6000DC01CB01BC01CD0120E030E044E353ECCC
:101A70000E94C103DC01CB01BC01CD0120E030E6B6
:101A80004FE155E40E949A02DC01CB01BC01CD017B
:101A90000E947500A22EB32EC42ED52EE62EF72E50
:101AA000082F192FA982BA82CB82DC82ED82FE82B6
:101AB0000F83188789819A810E94921C2C960FB6F9
:101AC000F894DEBF0FBECDBFCF91DF911F910F9174
:101AD000FF90EF90DF90CF90BF90AF900895DF938D
:101AE000CF93CDB7DEB7EC970FB6F894DEBF0FBE3D
:101AF000CDBF9CAF8BAF8BAD9CAD9C01220F331F34
:101B0000C901880F991F880F991F820F931F9CAFDF
:101B10008BAF8BAD9CAD27E030E0B9010E94D91EA0
:101B2000CB019CAF8BAF1AAE19AE1DC282E060E054
:101B300040E00E94471682E061E040E00E944716C4
:101B400082E062E040E00E94471682E063E041E00C
:101B50000E94471680E090E0A0E0B0E48DAB9EAB21
:101B6000AFABB8AF6DA97EA98FA998AD20E030E0EA
:101B70004AEF54E40E94C702DC01CB0189AB9AAB67
:101B8000ABABBCAB69A97AA98BA99CA920E030E0DA
:101B900040E85FE30E94CD0488232CF481E090E0CC
:101BA00098AB8FA73FC069A97AA98BA99CA920E00F
:101BB0003FEF4FE757E40E946D0418164CF56DA9EE
:101BC0007EA98FA998AD20E030E040E251E40E9468
:101BD000C702DC01CB01BC01CD010E944900DC0140
:101BE000CB0198AB8FA70FC088EC90E09EA78DA784
:101BF0008DA59EA50197F1F79EA78DA78FA598A902
:101C0000019798AB8FA78FA598A9009769F714C083
:101C100069A97AA98BA99CA90E944900DC01CB0182
:101C200098AB8FA78FA598A99CA78BA78BA59CA5E0
:101C30000197F1F79CA78BA782E060E041E00E944A
:101C4000471682E061E040E00E94471682E062E0D1
:101C500040E00E94471682E063E040E00E944716A1
:101C600080E090E0A0E0B0E48FA398A7A9A7BAA76E
:101C70006FA178A589A59AA520E030E04AEF54E449
:101C80000E94C702DC01CB018BA39CA3ADA3BEA322
:101C90006BA17CA18DA19EA120E030E040E85FE334
:101CA0000E94CD0488232CF481E090E09AA389A3BC
:101CB0003FC06BA17CA18DA19EA120E03FEF4FE72B
:101CC00057E40E946D0418164CF56FA178A589A5FC
:101CD0009AA520E030E040E251E40E94C702DC0116
:101CE000CB01BC01CD010E944900DC01CB019AA3CC
:101CF00089A30FC088EC90E098A38F8F8F8D98A157
:101D00000197F1F798A38F8F89A19AA101979AA3C0
:101D100089A389A19AA1009769F714C06BA17CA13E
:101D20008DA19EA10E944900DC01CB019AA389A349
:101D300089A19AA19E8F8D8F8D8D9E8D0197F1F730
:101D40009E8F8D8F82E060E040E00E94471682E027
:101D500061E041E00E94471682E062E040E00E94BC
:101D6000471682E063E040E00E94471680E090E082
:101D7000A0E0B0E4898F9A8FAB8FBC8F698D7A8D8C
:101D80008B8D9C8D20E030E04AEF54E40E94C70226
:101D9000DC01CB018D8B9E8BAF8BB88F6D897E89DB
:101DA0008F89988D20E030E040E85FE30E94CD0409
:101DB00088232CF481E090E09C8B8B8B3FC06D8955
:101DC0007E898F89988D20E03FEF4FE757E40E948E
:101DD0006D0418164CF5698D7A8D8B8D9C8D20E0E5
:101DE00030E040E251E40E94C702DC01CB01BC01BB
:101DF000CD010E944900DC01CB019C8B8B8B0FC075
:101E000088EC90E09A8B898B89899A890197F1F700
:101E10009A8B898B8B899C8901979C8B8B8B8B8967
:101E20009C89009769F714C06D897E898F89988D88
:101E30000E944900DC01CB019C8B8B8B8B899C8998
:101E4000988B8F878F8598890197F1F7988B8F876B
:101E500082E060E040E00E94471682E061E040E0FE
:101E60000E94471682E062E041E00E94471682E04D
:101E700063E040E00E94471680E090E0A0E0B0E41C
:101E80008B879C87AD87BE876B857C858D859E857E
:101E900020E030E04AEF54E40E94C702DC01CB01AD
:101EA0008F839887A987BA876F81788589859A8576
:101EB00020E030E040E85FE30E94CD0488232CF46A
:101EC00081E090E09E838D833FC06F817885898516
:101ED0009A8520E03FEF4FE757E40E946D04181603
:101EE0004CF56B857C858D859E8520E030E040E259
:101EF00051E40E94C702DC01CB01BC01CD010E946C
:101F00004900DC01CB019E838D830FC088EC90E0FB
:101F10009C838B838B819C810197F1F79C838B83BE
:101F20008D819E8101979E838D838D819E810097F7
:101F300069F714C06F81788589859A850E94490068
:101F4000DC01CB019E838D838D819E819A83898361
:101F500089819A810197F1F79A83898389AD9AAD36
:101F600001969AAF89AF29AD3AAD8BAD9CAD2817DC
:101F7000390708F4DBCDEC960FB6F894DEBF0FBE40
:101F8000CDBFCF91DF910895DF93CF93CDB7DEB76B
:101F9000EC970FB6F894DEBF0FBECDBF9CAF8BAFF2
:101FA0008BAD9CAD9C01220F331FC901880F991F77
:101FB000880F991F820F931F9CAF8BAF8BAD9CAD89
:101FC00027E030E0B9010E94D91ECB019CAF8BAF56
:101FD0001AAE19AE1DC282E060E041E00E944716D1
:101FE00082E061E040E00E94471682E062E040E06B
:101FF0000E94471682E063E040E00E94471680E0BE
:1020000090E0A0E0B0E48DAB9EABAFABB8AF6DA9F4
:102010007EA98FA998AD20E030E04AEF54E40E94F9
:10202000C702DC01CB0189AB9AABABABBCAB69A9F6
:102030007AA98BA99CA920E030E040E85FE30E94E8
:10204000CD0488232CF481E090E098AB8FA73FC0AB
:1020500069A97AA98BA99CA920E03FEF4FE757E433
:102060000E946D0418164CF56DA97EA98FA998AD34
:1020700020E030E040E251E40E94C702DC01CB01E5
:10208000BC01CD010E944900DC01CB0198AB8FA7B8
:102090000FC088EC90E09EA78DA78DA59EA5019707
:1020A000F1F79EA78DA78FA598A9019798AB8FA749
:1020B0008FA598A9009769F714C069A97AA98BA977
:1020C0009CA90E944900DC01CB0198AB8FA78FA58A
:1020D00098A99CA78BA78BA59CA50197F1F79CA716
:1020E0008BA782E060E040E00E94471682E061E05A
:1020F00040E00E94471682E062E040E00E944716FE
:1021000082E063E041E00E94471680E090E0A0E0BA
:10211000B0E48FA398A7A9A7BAA76FA178A589A5AE
:102120009AA520E030E04AEF54E40E94C702DC01A7
:10213000CB018BA39CA3ADA3BEA36BA17CA18DA15E
:102140009EA120E030E040E85FE30E94CD048823B8
:102150002CF481E090E09AA389A33FC06BA17CA1FD
:102160008DA19EA120E03FEF4FE757E40E946D0450
:1021700018164CF56FA178A589A59AA520E030E046
:1021800040E251E40E94C702DC01CB01BC01CD0159
:102190000E944900DC01CB019AA389A30FC088ECFF
:1021A00090E098A38F8F8F8D98A10197F1F798A356
:1021B0008F8F89A19AA101979AA389A389A19AA136
:1021C000009769F714C06BA17CA18DA19EA10E940C
:1021D0004900DC01CB019AA389A389A19AA19E8F12
:1021E0008D8F8D8D9E8D0197F1F79E8F8D8F82E063
:1021F00060E040E00E94471682E061E040E00E941B
:10220000471682E062E041E00E94471682E063E008
:1022100040E00E94471680E090E0A0E0B0E4898FA3
:102220009A8FAB8FBC8F698D7A8D8B8D9C8D20E0C2
:1022300030E04AEF54E40E94C702DC01CB018D8BF1
:102240009E8BAF8BB88F6D897E898F89988D20E0AA
:1022500030E040E85FE30E94CD0488232CF481E065
:1022600090E09C8B8B8B3FC06D897E898F89988D88
:1022700020E03FEF4FE757E40E946D0418164CF53D
:10228000698D7A8D8B8D9C8D20E030E040E251E4A9
:102290000E94C702DC01CB01BC01CD010E944900B4
:1022A000DC01CB019C8B8B8B0FC088EC90E09A8B70
:1022B000898B89899A890197F1F79A8B898B8B8908
:1022C0009C8901979C8B8B8B8B899C89009769F7E4
:1022D00014C06D897E898F89988D0E944900DC0128
:1022E000CB019C8B8B8B8B899C89988B8F878F855F
:1022F00098890197F1F7988B8F8782E060E040E042
:102300000E94471682E061E041E00E94471682E0A9
:1023100062E040E00E94471682E063E040E00E94F5
:10232000471680E090E0A0E0B0E48B879C87AD8703
:10233000BE876B857C858D859E8520E030E04AEFE9
:1023400054E40E94C702DC01CB018F839887A987E0
:10235000BA876F81788589859A8520E030E040E8EA
:102360005FE30E94CD0488232CF481E090E09E83FB
:102370008D833FC06F81788589859A8520E03FEF06
:102380004FE757E40E946D0418164CF56B857C8569
:102390008D859E8520E030E040E251E40E94C70236
:1023A000DC01CB01BC01CD010E944900DC01CB0165
:1023B0009E838D830FC088EC90E09C838B838B8100
:1023C0009C810197F1F79C838B838D819E8101977E
:1023D0009E838D838D819E81009769F714C06F81E4
:1023E000788589859A850E944900DC01CB019E830E
:1023F0008D838D819E819A83898389819A810197BA
:10240000F1F79A83898389AD9AAD01969AAF89AF26
:1024100029AD3AAD8BAD9CAD2817390708F4DBCD5B
:10242000EC960FB6F894DEBF0FBECDBFCF91DF9113
:102430000895DF93CF93CDB7DEB782E060E040E050
:102440000E94471682E061E040E00E94471682E069
:1024500062E040E00E94471682E063E040E00E94B4
:102460004716CF91DF910895DF93CF93CDB7DEB7B5
:102470002A970FB6F894DEBF0FBECDBF8A836B8359
:102480004C8319828A81282F30E03A8729878985F1
:102490009A8581309105C1F029853A85233031052F
:1024A00011F189859A85009769F5A7E2B0E0E7E226
:1024B000F0E080818F778C93A7E2B0E0E7E2F0E074
:1024C00080818F7B8C9320C0A7E2B0E0E7E2F0E050
:1024D00080818F778C93A7E2B0E0E7E2F0E0808123
:1024E00080648C9311C0A7E2B0E0E7E2F0E0808165
:1024F00080688C93A7E2B0E0E7E2F0E0808180643E
:102500008C9302C081E089838C81282F30E038874A
:102510002F838F819885009731F02F813885213066
:10252000310549F010C0A7E2B0E0E7E2F0E08081B9
:102530008F7D8C930AC0A7E2B0E0E7E2F0E08081F3
:1025400080628C9302C081E089838B81282F30E0E8
:102550003E832D838D819E818430910509F46BC06B
:102560002D813E81253031058CF48D819E81823014
:102570009105A9F12D813E81233031050CF045C034
:102580008D819E8181309105A1F0ADC02D813E816C
:102590002630310509F47BC08D819E8186309105FE
:1025A0000CF45FC02D813E812730310509F485C0D0
:1025B0009AC0A6E2B0E0E6E2F0E0808181608C9310
:1025C000A6E2B0E0E6E2F0E080818D7F8C93A6E2A7
:1025D000B0E0E6E2F0E080818B7F8C9386C0A6E2DB
:1025E000B0E0E6E2F0E080818E7F8C93A6E2B0E07E
:1025F000E6E2F0E0808182608C93A6E2B0E0E6E261
:10260000F0E080818B7F8C9370C0A6E2B0E0E6E2C0
:10261000F0E0808181608C93A6E2B0E0E6E2F0E039
:10262000808182608C93A6E2B0E0E6E2F0E08081F7
:102630008B7F8C935AC0A6E2B0E0E6E2F0E08081A6
:102640008E7F8C93A6E2B0E0E6E2F0E080818D7FA1
:102650008C93A6E2B0E0E6E2F0E0808184608C93A7
:1026600044C0A6E2B0E0E6E2F0E0808181608C93B5
:10267000A6E2B0E0E6E2F0E080818D7F8C93A6E2F6
:10268000B0E0E6E2F0E0808184608C932EC0A6E2A8
:10269000B0E0E6E2F0E080818E7F8C93A6E2B0E0CD
:1026A000E6E2F0E0808182608C93A6E2B0E0E6E2B0
:1026B000F0E0808184608C9318C0A6E2B0E0E6E28E
:1026C000F0E0808181608C93A6E2B0E0E6E2F0E089
:1026D000808182608C93A6E2B0E0E6E2F0E0808147
:1026E00084608C9302C081E08983A6E2B0E0E6E2D8
:1026F000F0E0808180688C9389812A960FB6F894E7
:10270000DEBF0FBECDBFCF91DF910895DF93CF9392
:10271000CDB7DEB7A7E2B0E0E7E2F0E080818F77E7
:102720008C93A7E2B0E0E7E2F0E0808180648C93D4
:10273000A7E2B0E0E7E2F0E080818F7D8C93A6E233
:10274000B0E0E6E2F0E0808181608C93A6E2B0E048
:10275000E6E2F0E080818D7F8C93A6E2B0E0E6E2D5
:10276000F0E0808184608C93A6E2B0E0E6E2F0E0E5
:10277000808180688C93CF91DF910895DF93CF9310
:102780000F92CDB7DEB78983A7E2B0E0E7E2F0E0D1
:102790008081807E8C93A7E2B0E0E7E2F0E0908158
:1027A0008981892B8C93A6E2B0E0E6E2F0E080819B
:1027B00080648C93E6E2F0E0808182958F70882FB0
:1027C00090E0817090700097A9F3A6E2B0E0E6E295
:1027D000F0E0808180618C93E4E2F0E0808191817F
:1027E0000F90CF91DF910895CF92DF92EF92FF92F9
:1027F0000F931F93DF93CF93CDB7DEB762970FB6DA
:10280000F894DEBF0FBECDBF6D837E838F83988724
:1028100029873A874B875C871E870D87F88AEF8662
:10282000DA8AC98A2D813E814F81588589859A85AA
:10283000AB85BC8579018A01E81AF90A0A0B1B0BE2
:10284000D801C701BC01CD010E94FD047B018C01B0
:1028500029893A898F859889A901481B590BCA0192
:10286000CC01A0E0B0E0BC01CD010E94AF059B010E
:10287000AC01C801B7010E94C702DC01CB017C0199
:102880008D012D853E858F859889A901481B590B9F
:10289000CA01CC01A0E0B0E0BC01CD010E94AF05AF
:1028A0009B01AC01C801B7010E94C103DC01CB014F
:1028B0007C018D0169857A858B859C850E94FD044C
:1028C0009B01AC01C801B7010E949A02DC01CB0157
:1028D000BC01CD0120E030E040E85FE30E949A02B5
:1028E000DC01CB01BC01CD010E945B05DC01CB0109
:1028F00089839A83AB83BC8389819A81AB81BC81B4
:10290000BC01CD0162960FB6F894DEBF0FBECDBFFD
:10291000CF91DF911F910F91FF90EF90DF90CF90BB
:102920000895DF93CF93CDB7DEB7EAE3F0E08FEF02
:102930008083E7E3F0E08FE48083E4E3F0E08FEF6F
:102940008083E1E3F0E08FEF8083EBE3F0E010823F
:10295000E8E3F0E01082E5E3F0E01082E2E3F0E08B
:102960001082CF91DF910895DF93CF9300D000D0F4
:102970000F92CDB7DEB78A836B8319828B81883043
:1029800010F081E08983A0E5B0E0E0E5F0E080812F
:102990008B7F8C938A81282F30E03D832C838C8120
:1029A0009D818230910551F12C813D81233031058B
:1029B00034F48C819D818130910561F05BC02C8164
:1029C0003D812330310571F18C819D8184309105E9
:1029D000E9F150C0ABE3B0E0EBE3F0E08081482FD9
:1029E0008B81282F30E081E090E0022E02C0880F1A
:1029F000991F0A94E2F7842B8C933EC0A8E3B0E0C1
:102A0000E8E3F0E08081482F8B81282F30E081E0DF
:102A100090E0022E02C0880F991F0A94E2F7842BDF
:102A20008C932AC0A5E3B0E0E5E3F0E08081482F75
:102A30008B81282F30E081E090E0022E02C0880FC9
:102A4000991F0A94E2F7842B8C9316C0A2E3B0E09E
:102A5000E2E3F0E08081482F8B81282F30E081E095
:102A600090E0022E02C0880F991F0A94E2F7842B8F
:102A70008C9302C081E0898389810F900F900F9021
:102A80000F900F90CF91DF910895DF93CF93CDB743
:102A9000DEB727970FB6F894DEBF0FBECDBF898390
:102AA0006A834B838B81882309F075C08981282F25
:102AB00030E03F832E838E819F818230910561F1CA
:102AC0002E813F812330310534F48E819F81813006
:102AD000910569F0D3C02E813F812330310589F102
:102AE0008E819F818430910509F440C0C7C0AAE35C
:102AF000B0E0EAE3F0E08081482F8A81282F30E0BF
:102B000081E090E0022E02C0880F991F0A94E2F73C
:102B1000809584238C93B2C0A7E3B0E0E7E3F0E0B4
:102B20008081482F8A81282F30E081E090E0022EBA
:102B300002C0880F991F0A94E2F7809584238C9332
:102B40009DC0A4E3B0E0E4E3F0E08081482F8A81F7
:102B5000282F30E081E090E0022E02C0880F991FFC
:102B60000A94E2F7809584238C9388C0A1E3B0E0B7
:102B7000E1E3F0E08081482F8A81282F30E081E076
:102B800090E0022E02C0880F991F0A94E2F7809508
:102B900084238C9373C08B81813009F06FC089814D
:102BA000282F30E03D832C838C819D8182309105DC
:102BB00051F12C813D812330310534F48C819D818C
:102BC0008130910561F05AC02C813D81233031055F
:102BD00071F18C819D8184309105E9F14FC0AAE3A8
:102BE000B0E0EAE3F0E08081482F8A81282F30E0CE
:102BF00081E090E0022E02C0880F991F0A94E2F74C
:102C0000842B8C933BC0A7E3B0E0E7E3F0E0808146
:102C1000482F8A81282F30E081E090E0022E02C008
:102C2000880F991F0A94E2F7842B8C9327C0A4E3A2
:102C3000B0E0E4E3F0E08081482F8A81282F30E083
:102C400081E090E0022E02C0880F991F0A94E2F7FB
:102C5000842B8C9313C0A1E3B0E0E1E3F0E080812A
:102C6000482F8A81282F30E081E090E0022E02C0B8
:102C7000880F991F0A94E2F7842B8C9327960FB63E
:102C8000F894DEBF0FBECDBFCF91DF910895DF93E3
:102C9000CF93CDB7DEB728970FB6F894DEBF0FBE3F
:102CA000CDBF8A836B834C8319828B81883010F06F
:102CB00081E089838C81882309F078C08A81282F5C
:102CC00030E038872F838F8198858230910561F1BC
:102CD0002F8138852330310534F48F8198858130F8
:102CE000910569F060C02F8138852330310589F165
:102CF0008F8198858430910509F440C054C0ABE3BE
:102D0000B0E0EBE3F0E08081482F8B81282F30E0AA
:102D100081E090E0022E02C0880F991F0A94E2F72A
:102D2000809584238C93B8C0A8E3B0E0E8E3F0E09A
:102D30008081482F8B81282F30E081E090E0022EA7
:102D400002C0880F991F0A94E2F7809584238C9320
:102D5000A3C0A5E3B0E0E5E3F0E08081482F8B81DC
:102D6000282F30E081E090E0022E02C0880F991FEA
:102D70000A94E2F7809584238C938EC0A2E3B0E09E
:102D8000E2E3F0E08081482F8B81282F30E081E062
:102D900090E0022E02C0880F991F0A94E2F78095F6
:102DA00084238C9379C081E0898376C08C818130C3
:102DB00009F072C08A81282F30E03E832D838D81F7
:102DC0009E818230910551F12D813E812330310564
:102DD00034F48D819E818130910561F05BC02D813D
:102DE0003E812330310571F18D819E8184309105C2
:102DF000E9F150C0ABE3B0E0EBE3F0E08081482FB5
:102E00008B81282F30E081E090E0022E02C0880FF5
:102E1000991F0A94E2F7842B8C933EC0A8E3B0E09C
:102E2000E8E3F0E08081482F8B81282F30E081E0BB
:102E300090E0022E02C0880F991F0A94E2F7842BBB
:102E40008C932AC0A5E3B0E0E5E3F0E08081482F51
:102E50008B81282F30E081E090E0022E02C0880FA5
:102E6000991F0A94E2F7842B8C9316C0A2E3B0E07A
:102E7000E2E3F0E08081482F8B81282F30E081E071
:102E800090E0022E02C0880F991F0A94E2F7842B6B
:102E90008C9302C081E08983898128960FB6F894CB
:102EA000DEBF0FBECDBFCF91DF910895DF93CF93EB
:102EB000CDB7DEB727970FB6F894DEBF0FBECDBFF4
:102EC0008A836B835D834C8319828B81883010F0F9
:102ED00081E089838A81282F30E03F832E834E81D1
:102EE0005F814230510559F18E819F818330910578
:102EF00034F42E813F812130310569F05CC04E8170
:102F00005F814330510579F18E819F818430910535
:102F100009F43DC050C0E9E3F0E08081282F30E0A3
:102F20008B81882F90E0A90102C0559547958A951D
:102F3000E2F7CA018170EC81FD8180833EC0E6E347
:102F4000F0E08081282F30E08B81882F90E0A9016C
:102F500002C0559547958A95E2F7CA018170EC81C8
:102F6000FD8180832AC0E3E3F0E08081282F30E0F8
:102F70008B81882F90E0A90102C0559547958A95CD
:102F8000E2F7CA018170EC81FD81808316C0E0E325
:102F9000F0E08081282F30E08B81882F90E0A9011C
:102FA00002C0559547958A95E2F7CA018170EC8178
:102FB000FD81808302C081E08983898127960FB6D5
:102FC000F894DEBF0FBECDBFCF91DF910895DF93A0
:102FD000CF9300D000D00F92CDB7DEB78A836B833A
:102FE00019828A81282F30E03D832C838C819D813A
:102FF00082309105D9F02C813D812330310534F4A4
:103000008C819D818130910561F01FC02C813D81B3
:103010002330310581F08C819D818430910581F0D0
:1030200014C0EBE3F0E08B81808311C0E8E3F0E0B3
:103030008B8180830CC0E5E3F0E08B81808307C047
:10304000E2E3F0E08B81808302C081E089838981A3
:103050000F900F900F900F900F90CF91DF910895E8
:10306000DF93CF9300D000D000D0CDB7DEB78A83F6
:103070007C836B8319828A81282F30E03E832D83E5
:103080008D819E8182309105E9F02D813E81233032
:10309000310534F48D819E818130910561F027C026
:1030A0002D813E8123303105A1F08D819E818430B8
:1030B0009105B1F01CC0E9E3F0E08081EB81FC8177
:1030C000808317C0E6E3F0E08081EB81FC818083A0
:1030D00010C0E3E3F0E08081EB81FC81808309C0D4
:1030E000E0E3F0E08081EB81FC81808302C081E03D
:1030F0008983898126960FB6F894DEBF0FBECDBFB7
:10310000CF91DF910895DF93CF9300D000D00F923D
:10311000CDB7DEB78A836B8319828A81282F30E08E
:103120003D832C838C819D818230910551F12C81CE
:103130003D812330310534F48C819D8181309105AE
:1031400061F05BC02C813D812330310571F18C81B0
:103150009D8184309105E9F150C0ABE3B0E0EBE331
:10316000F0E08081482F8B81282F30E081E090E0D3
:10317000022E02C0880F991F0A94E2F784278C93CD
:103180003EC0A8E3B0E0E8E3F0E08081482F8B8107
:10319000282F30E081E090E0022E02C0880F991FB6
:1031A0000A94E2F784278C932AC0A5E3B0E0E5E314
:1031B000F0E08081482F8B81282F30E081E090E083
:1031C000022E02C0880F991F0A94E2F784278C937D
:1031D00016C0A2E3B0E0E2E3F0E08081482F8B81EB
:1031E000282F30E081E090E0022E02C0880F991F66
:1031F0000A94E2F784278C9302C081E08983898155
:103200000F900F900F900F900F90CF91DF91089536
:10321000DF93CF93CDB7DEB7AFE5B0E0EFE5F0E0F9
:10322000808180688C93CF91DF910895DF93CF9355
:10323000CDB7DEB7AFE5B0E0EFE5F0E080818F77A6
:103240008C93CF91DF910895DF93CF93CDB7DEB705
:10325000ADE2B0E0EDE2F0E080818F7E8C93ADE2F4
:10326000B0E0EDE2F0E0808180628C93ADE2B0E00E
:10327000EDE2F0E08081877F8C93ADE2B0E0EDE29B
:10328000F0E0808184608C93ADE2B0E0EDE2F0E0AC
:10329000808180688C93ADE2B0E0EDE2F0E0808167
:1032A00080648C93CF91DF910895DF93CF930F9239
:1032B000CDB7DEB78983EFE2F0E089818083EEE26B
:1032C000F0E080818823DCF7AEE2B0E0EEE2F0E0EF
:1032D000808180688C93EFE2F0E080810F90CF9145
:1032E000DF910895DF93CF93CDB7DEB7EFE2F0E043
:1032F0008081CF91DF910895DF93CF9300D0CDB738
:10330000DEB79A83898389819A819093770180932C
:1033100076010F900F90CF91DF9108951F920F9239
:103320000FB60F9211242F933F934F935F936F9398
:103330007F938F939F93AF93BF93EF93FF93DF930D
:10334000CF93CDB7DEB7E0917601F0917701099583
:10335000CF91DF91FF91EF91BF91AF919F918F91AD
:103360007F916F915F914F913F912F910F900FBE81
:103370000F901F901895DF93CF93CDB7DEB7A3E5DD
:10338000B0E0E3E5F0E080818F7B8C93A3E5B0E0D3
:10339000E3E5F0E08081877F8C93A9E5B0E0E9E583
:1033A000F0E0808181608C93E2E5F0E086E080834C
:1033B000A3E5B0E0E3E5F0E080818E7F8C93A3E5A8
:1033C000B0E0E3E5F0E0808182608C93A3E5B0E0BB
:1033D000E3E5F0E080818B7F8C93CF91DF910895BE
:1033E000DF93CF93CDB7DEB7A3E5B0E0E3E5F0E040
:1033F00080818E7F8C93A3E5B0E0E3E5F0E08081EF
:103400008D7F8C93A3E5B0E0E3E5F0E080818B7FD6
:103410008C93CF91DF910895DF93CF930F92CDB727
:10342000DEB78983E2E5F0E0898180830F90CF9158
:10343000DF910895DF93CF930F92CDB7DEB78983E5
:10344000ECE5F0E0898180830F90CF91DF910895C2
:10345000DF93CF9300D0CDB7DEB79A83898389817C
:103460009A8190937901809378010F900F90CF917A
:10347000DF9108951F920F920FB60F9211242F9390
:103480003F934F935F936F937F938F939F93AF93EC
:10349000BF93EF93FF93DF93CF93CDB7DEB7E09168
:1034A0007801F09179010995CF91DF91FF91EF912A
:1034B000BF91AF919F918F917F916F915F914F914C
:1034C0003F912F910F900FBE0F901F901895DF9393
:1034D000CF93CDB7DEB729970FB6F894DEBF0FBEF6
:1034E000CDBF89836A834B838981282F30E0398758
:1034F0002887888599858230910509F45CC02885E4
:1035000039852330310554F4888599850097C9F0B1
:10351000288539852130310589F1C0C08885998594
:103520008430910509F481C028853985243031051E
:103530000CF45EC0888599858530910509F492C0A8
:10354000ADC0AFE4B0E0EFE4F0E080818F7B8C931E
:10355000AFE4B0E0EFE4F0E080818F7E8C93AFE4E5
:10356000B0E0EFE4F0E080818F778C93AFE4B0E0DF
:10357000EFE4F0E080818F7D8C9390C0AFE4B0E009
:10358000EFE4F0E0808180648C93AFE4B0E0EFE49E
:10359000F0E0808180618C93AFE4B0E0EFE4F0E094
:1035A00080818F778C93AFE4B0E0EFE4F0E080812E
:1035B0008F7D8C9373C0AFE4B0E0EFE4F0E08081E6
:1035C00080648C93AFE4B0E0EFE4F0E08081806150
:1035D0008C93AFE4B0E0EFE4F0E0808180688C93FE
:1035E000AFE4B0E0EFE4F0E0808180628C9356C0FD
:1035F000AFE4B0E0EFE4F0E080818F7B8C93AFE448
:10360000B0E0EFE4F0E080818F7E8C93AFE4B0E037
:10361000EFE4F0E0808180688C93AFE4B0E0EFE409
:10362000F0E0808180628C9339C0AFE4B0E0EFE4D9
:10363000F0E080818F7B8C93AFE4B0E0EFE4F0E0CA
:1036400080818F7E8C93AFE4B0E0EFE4F0E0808186
:1036500080688C93AFE4B0E0EFE4F0E080818062BA
:103660008C931CC0AFE4B0E0EFE4F0E080818064B4
:103670008C93AFE4B0E0EFE4F0E0808180618C9364
:10368000AFE4B0E0EFE4F0E0808180688C93AFE4D9
:10369000B0E0EFE4F0E0808180628C938A81282F93
:1036A00030E03F832E838E819F818230910509F423
:1036B00056C02E813F812330310554F48E819F8185
:1036C000009781F12E813F812130310571F09DC03D
:1036D0008E819F818330910509F45EC02E813F81E8
:1036E0002430310509F475C090C0AFE4B0E0EFE4D8
:1036F000F0E080818E7F8C93AFE4B0E0EFE4F0E007
:1037000080818D7F8C93AEE4B0E0EEE4F0E08081C8
:1037100088608C93AEE4B0E0EEE4F0E080818061FC
:103720008C9373C0AFE4B0E0EFE4F0E080818E7F73
:103730008C93AFE4B0E0EFE4F0E080818D7F8C9378
:10374000AEE4B0E0EEE4F0E0808188608C93AEE41B
:10375000B0E0EEE4F0E080818F7E8C9356C0AFE461
:10376000B0E0EFE4F0E080818E7F8C93AFE4B0E0D6
:10377000EFE4F0E0808182608C93AEE4B0E0EEE4B0
:10378000F0E0808188608C93AEE4B0E0EEE4F0E09D
:10379000808180618C9339C0AFE4B0E0EFE4F0E069
:1037A000808181608C93AFE4B0E0EFE4F0E0808151
:1037B00082608C93AEE4B0E0EEE4F0E0808188605B
:1037C0008C93AEE4B0E0EEE4F0E0808180618C9315
:1037D0001CC0AFE4B0E0EFE4F0E080818E7F8C931A
:1037E000AFE4B0E0EFE4F0E080818D7F8C93AEE455
:1037F000B0E0EEE4F0E08081877F8C93AEE4B0E04F
:10380000EEE4F0E080818F7E8C938B81282F30E076
:103810003D832C838C819D818130910501F12C8128
:103820003D812230310589F18C819D81009709F01D
:1038300041C0AEE4B0E0EEE4F0E080818E7F8C9396
:10384000AEE4B0E0EEE4F0E0808182608C93AEE420
:10385000B0E0EEE4F0E080818B7F8C932BC0AEE48F
:10386000B0E0EEE4F0E0808181608C93AEE4B0E003
:10387000EEE4F0E0808182608C93AEE4B0E0EEE4B0
:10388000F0E080818B7F8C9315C0AEE4B0E0EEE475
:10389000F0E080818E7F8C93AEE4B0E0EEE4F0E067
:1038A00080818D7F8C93AEE4B0E0EEE4F0E0808127
:1038B00084608C9329960FB6F894DEBF0FBECDBFFF
:1038C000CF91DF910895DF93CF9300D000D00F9276
:1038D000CDB7DEB79A8389836B838B81282F30E045
:1038E0003D832C838C819D818230910531F02C8128
:1038F0003D812330310541F00DC0E6E4F0E08981DF
:103900009A819183808306C0EAE4F0E089819A81FC
:10391000918380830F900F900F900F900F90CF9115
:10392000DF910895DF93CF9300D0CDB7DEB79A83B0
:103930008983EAE4F0E089819A81918380830F9002
:103940000F90CF91DF910895DF93CF9300D00F9226
:10395000CDB7DEB789838981282F30E03B832A8366
:103960008A819B81009731F02A813B81213031058A
:1039700049F00FC0AEE4B0E0EEE4F0E08081806496
:103980008C9307C0AEE4B0E0EEE4F0E080818F7B82
:103990008C930F900F900F90CF91DF910895DF934C
:1039A000CF93CDB7DEB7A9E5B0E0E9E5F0E08081DF
:1039B00080628C93CF91DF910895DF93CF93CDB741
:1039C000DEB727970FB6F894DEBF0FBECDBF9C833E
:1039D0008B837E836D834F8381E08A83198218C035
:1039E0008981282F30E08B819C81FC01E20FF31F3D
:1039F00040818981282F30E08D819E81FC01E20F7A
:103A0000F31F8081481709F01A8289818F5F8983AB
:103A100099818F81981720F38A8127960FB6F894A1
:103A2000DEBF0FBECDBFCF91DF910895DF93CF935F
:103A3000CDB7DEB70E94FC1D80916801833AE1F7A3
:103A40000E940D1E80916801833070F080916801A2
:103A5000863950F48091680194E6692F0E94CD1E4A
:103A6000892F80936901EECF80916801873919F41D
:103A70000E94961EE7CF80916801893919F40E944F
:103A8000961EE0CF80916801883919F40E94A21E29
:103A9000D9CF809168018A3919F40E94961ED2CF3D
:103AA000809168018F3931F40E94241E84EA80934A
:103AB0006801C8CF80916801803A31F40E94311EBC
:103AC00084EA80936801BECF80916801813A31F425
:103AD0000E947C1E84EA80936801B4CF80916801C3
:103AE000823A31F40E94891E84EA80936801AACF49
:103AF000809168018B3931F40E943E1E84EA8093E4
:103B00006801A0CF809168018C3931F40E945D1E5C
:103B100084EA8093680196CF809168018D3931F4F1
:103B20000E943E1E84EA809368018CCF80916801D8
:103B30008E3909F087CF0E945D1E84EA8093680168
:103B400081CFDF93CF93CDB7DEB7809169019AE043
:103B5000692F0E94CD1E892F63E00E949C0884E09B
:103B600063E040E00E94471684E062E041E00E948A
:103B70004716CF91DF910895DF93CF93CDB7DEB78E
:103B8000809169019AE0692F0E94CD1E63E00E9436
:103B90009C0884E063E041E00E94471684E062E014
:103BA00040E00E944716CF91DF910895DF93CF93B5
:103BB000CDB7DEB7809175018F5F809375018091DD
:103BC0007501823319F40E94A11D08C0809175010E
:103BD000843621F4109275010E94BC1DCF91DF91B3
:103BE0000895DF93CF93CDB7DEB70E94721980930B
:103BF0006801CF91DF910895DF93CF93CDB7DEB702
:103C00000E9491140E9408190E94241981EF9DE1DD
:103C10000E947C19CF91DF910895DF93CF93CDB7A8
:103C2000DEB70E94BB1986ED9DE10E94281A84E050
:103C300062E040E00E94671A80E29EE462E00E9437
:103C4000631CCF91DF910895DF93CF93CDB7DEB79B
:103C500064EB70E080E090E00E947D0CCF91DF91FA
:103C60000895DF93CF93CDB7DEB760E070E080E0DA
:103C700090E00E947D0CCF91DF910895DF93CF9368
:103C8000CDB7DEB781E00E941F0982E00E941F09C4
:103C900083E00E941F0984E00E941F0985E00E94C2
:103CA0001F0986E00E941F0987E00E941F0988E023
:103CB0000E941F09CF91DF910895DF93CF93CDB775
:103CC000DEB781E00E94BE0A82E00E94BE0A83E065
:103CD0000E94BE0A84E00E94BE0A85E00E94BE0ADD
:103CE00086E00E94BE0A87E00E94BE0A88E00E9429
:103CF000BE0ACF91DF910895DF93CF93CDB7DEB7A2
:103D00008EE091E00E946F0D0E941912CF91DF9119
:103D10000895DF93CF93CDB7DEB78EE091E00E9498
:103D2000C40F0E941912CF91DF910895DF93CF93B2
:103D3000CDB7DEB784E060E041E00E944716CF9146
:103D4000DF910895DF93CF93CDB7DEB784E060E0D5
:103D500040E00E944716CF91DF910895629FD00105
:103D6000739FF001829FE00DF11D649FE00DF11D36
:103D7000929FF00D839FF00D749FF00D659FF00DE5
:103D80009927729FB00DE11DF91F639FB00DE11DD2
:103D9000F91FBD01CF0111240895991B79E004C0DA
:103DA000991F961708F0961B881F7A95C9F780957A
:103DB0000895AA1BBB1B51E107C0AA1FBB1FA61772
:103DC000B70710F0A61BB70B881F991F5A95A9F7C4
:103DD00080959095BC01CD0108952F923F924F920E
:103DE0005F926F927F928F929F92AF92BF92CF928B
:103DF000DF92EF92FF920F931F93CF93DF93CDB794
:103E0000DEB7CA1BDB0B0FB6F894DEBF0FBECDBF0B
:103E100009942A88398848885F846E847D848C84DC
:103E20009B84AA84B984C884DF80EE80FD800C81E5
:103E30001B81AA81B981CE0FD11D0FB6F894DEBFC8
:0C3E40000FBECDBFED010895F894FFCF38
:103E4C000000000000000000000102020303030355
:103E5C00040404040404040405050505050505050E
:103E6C0005050505050505050606060606060606EE
:103E7C0006060606060606060606060606060606D6
:103E8C0006060606060606060707070707070707BE
:103E9C0007070707070707070707070707070707A6
:103EAC000707070707070707070707070707070796
:103EBC000707070707070707070707070707070786
:103ECC00070707070707070708080808080808086E
:103EDC000808080808080808080808080808080856
:103EEC000808080808080808080808080808080846
:103EFC000808080808080808080808080808080836
:103F0C000808080808080808080808080808080825
:103F1C000808080808080808080808080808080815
:103F2C000808080808080808080808080808080805
:103F3C0008080808080808080808080808080808F5
:103F4C000808080808080808A43F3F065B4F666D80
:043F5C007D077F6FEF
:00000001FF
