:100000000C942A000C9447000C9447000C94470071
:100010000C9447000C9447000C9447000C94470044
:100020000C9447000C9447000C9447000C94C32098
:100030000C9447000C9447000C9447000C94470024
:100040000C9447000C9447000C9447000C94470014
:100050000C94470011241FBECFE5D8E0DEBFCDBF12
:1000600012E0A0E6B0E0EAE1F7E502C005900D92EB
:10007000A634B107D9F712E0A6E4B2E001C01D92A0
:10008000A135B107E1F70E9434250C948B2B0C9419
:100090000000EF92FF920F931F937B018C0120E0F1
:1000A00030E040E05FE40E94F50388238CF0C80153
:1000B000B70120E030E040E05FE40E94C1010E940F
:1000C000B3049B01AC01205030404040504806C072
:1000D000C801B7010E94B3049B01AC01B901CA0178
:1000E0001F910F91FF90EF900895A0E0B0E0EBE733
:1000F000F0E00C940F2BDC012B01FA019C91923063
:1001000008F439C1EB018881823008F433C194309E
:1001100069F4843009F02FC111969C91119789815F
:10012000981709F428C1A8E2B1E025C1843009F488
:1001300021C18230A9F4923009F01DC19A01AD01AC
:1001400088E0EA010990AE01E90109929E0181501F
:10015000C1F7E201898111969C918923818308C1AD
:10016000923009F407C112962D903C901397EB0141
:100170008A819B811496AD90BD90CD90DC901797AD
:10018000EC80FD800E811F819101281B390BB90184
:1001900037FF04C066277727621B730B6032710537
:1001A0000CF061C0121613066CF537014801062EDB
:1001B00004C096948794779467940A94D2F721E0C8
:1001C00030E040E050E004C0220F331F441F551FB1
:1001D0006A95D2F721503040404050402E213F21B7
:1001E00040235123211531054105510521F021E01E
:1001F00030E040E050E079018A01E628F72808293C
:1002000019293CC0232BD1F1260E371E350146019A
:10021000062E04C096948794779467940A94D2F734
:1002200021E030E040E050E004C0220F331F441FC3
:10023000551F6A95D2F721503040404050402A2146
:100240003B214C215D21211531054105510521F04E
:1002500021E030E040E050E059016A01A628B728CB
:10026000C828D9280BC0821593052CF01C01AA249C
:10027000BB24650103C0EE24FF24870111969C91E5
:10028000D20111968C91981709F445C0992339F041
:10029000A80197012A193B094C095D0906C0A6016E
:1002A00095012E193F09400B510B57FD08C01182D3
:1002B0003382228224833583468357831DC081E0A5
:1002C00081833382228288279927DC01821B930B4A
:1002D000A40BB50B84839583A683B7830DC0220F2F
:1002E000331F441F551F24833583468357838281E0
:1002F000938101979383828324813581468157813D
:10030000DA01C9010197A109B1098F5F9F4FAF4F72
:10031000BF4328F30BC0918333822282EA0CFB1C7B
:100320000C1D1D1DE482F5820683178383E0808304
:10033000248135814681578157FF1AC0C901AA27F8
:1003400097FDA095BA2F81709070A070B0705695EF
:10035000479537952795822B932BA42BB52B848318
:100360009583A683B7838281938101969383828349
:10037000DF0101C0D201CD01CDB7DEB7E2E10C94BF
:100380002B2BA0E2B0E0E7ECF1E00C941B2B69838F
:100390007A838B839C832D833E834F835887E9E048
:1003A000EE2EF12CEC0EFD1ECE010196B7010E943F
:1003B000A4068E010F5E1F4FCE010596B8010E9464
:1003C000A4068A8991E089278A8BC701B801AE010A
:1003D000475E5F4F0E9475000E94CF05A096E6E041
:1003E0000C94372BA0E2B0E0E8EFF1E00C941B2B6B
:1003F00069837A838B839C832D833E834F835887C5
:10040000F9E0EF2EF12CEC0EFD1ECE010196B701A6
:100410000E94A4068E010F5E1F4FCE010596B80103
:100420000E94A406C701B801AE01475E5F4F0E945B
:1004300075000E94CF05A096E6E00C94372BA0E251
:10044000B0E0E5E2F2E00C940F2B69837A838B83B2
:100450009C832D833E834F835887CE010196BE0136
:10046000675F7F4F0E94A406CE010596BE016F5EB6
:100470007F4F0E94A4069985923088F08989823046
:10048000C8F0943019F4823051F404C0843029F457
:10049000923081F488E291E0C6C0923049F420E0C5
:1004A0009A858A89981321E02A87CE010996BBC0D4
:1004B000823049F420E09A858A89981321E02A8BBA
:1004C000CE014196B0C02D843E844F8458886D88FB
:1004D0007E888F88988CEE24FF248701AA24BB2471
:1004E000650140E050E060E070E0E0E0F0E0C10174
:1004F00081709070892BE9F0E60CF71C081D191D1E
:100500009A01AB012A0D3B1D4C1D5D1D80E090E062
:10051000A0E0B0E0E614F7040805190520F481E036
:1005200090E0A0E0B0E0BA01A901480F591F6A1F8E
:100530007B1FAA0CBB1CCC1CDD1C97FE08C081E0F5
:1005400090E0A0E0B0E0A82AB92ACA2ADB2A3196B6
:10055000E032F10549F0660C771C881C991C569412
:10056000479437942794C3CFFA85EA892B893C892D
:100570008B859C85280F391F2E5F3F4F17C0CA01FE
:1005800081709070892B61F016950795F794E79428
:1005900080E090E0A0E0B0E8E82AF92A0A2B1B2BC3
:1005A00076956795579547952F5F3F4F77FDE7CF36
:1005B0000CC0440F551F661F771F17FD4160EE0CDE
:1005C000FF1C001F111F21503040403090E05907A0
:1005D00090E0690790E4790760F32B8F3C8FDB0193
:1005E000CA018F779070A070B07080349105A1051A
:1005F000B10561F447FD0AC0E114F10401051105DC
:1006000029F0405C5F4F6F4F7F4F40781A8EFE1786
:1006100011F081E08A8F4D8F5E8F6F8F78A383E01A
:10062000898FCE0149960E94CF05A096E2E10C94F5
:100630002B2BA8E1B0E0EFE1F3E00C94172B6983DA
:100640007A838B839C832D833E834F835887B9E0C5
:10065000EB2EF12CEC0EFD1ECE010196B7010E948F
:10066000A4068E010F5E1F4FCE010596B8010E94B1
:10067000A4062985223008F47EC03989323010F46E
:10068000B8017CC08A859A8989278A87243011F02D
:10069000223031F4231709F06EC068E271E06EC0B9
:1006A000343039F41D861E861F86188A1C861B86E8
:1006B00004C0323021F484E08987B7015FC02B8504
:1006C0003C858B899C89281B390B3C872B87ED84C3
:1006D000FE840F851889AD88BE88CF88D88CEA142F
:1006E000FB040C051D0540F4EE0CFF1C001F111F40
:1006F000215030403C872B8720E030E040E050E044
:1007000080E090E0A0E0B0E460E070E0EA14FB0478
:100710000C051D0540F0282B392B4A2B5B2BEA18C2
:10072000FB080C091D09B695A79597958795EE0CC2
:10073000FF1C001F111F6F5F7F4F6F31710531F775
:10074000DA01C9018F779070A070B0708034910584
:10075000A105B10561F427FD0AC0E114F10401050A
:10076000110529F0205C3F4F4F4F5F4F20782D87B8
:100770003E874F87588BBE01675F7F4FCB010E943A
:10078000CF056896EAE00C94332BA8E1B0E0EBECDF
:10079000F3E00C941B2B69837A838B839C832D83DA
:1007A0003E834F83588789E0E82EF12CEC0EFD1E26
:1007B000CE010196B7010E94A4068E010F5E1F4F65
:1007C000CE010596B8010E94A4068985823040F0CA
:1007D0008989823028F0C701B8010E941C0701C036
:1007E0008FEF6896E6E00C94372BA8E1B0E0EBEFD2
:1007F000F3E00C941B2B69837A838B839C832D837A
:100800003E834F83588789E0E82EF12CEC0EFD1EC5
:10081000CE010196B7010E94A4068E010F5E1F4F04
:10082000CE010596B8010E94A4068985823040F069
:100830008989823028F0C701B8010E941C0701C0D5
:100840008FEF6896E6E00C94372BA8E1B0E0EBE27E
:10085000F4E00C941B2B69837A838B839C832D8318
:100860003E834F83588789E0E82EF12CEC0EFD1E65
:10087000CE010196B7010E94A4068E010F5E1F4FA4
:10088000CE010596B8010E94A4068985823040F009
:100890008989823028F0C701B8010E941C0701C075
:1008A00081E06896E6E00C94372BA8E0B0E0EBE539
:1008B000F4E00C94182B9B01AC0183E08983DA01EE
:1008C000C9018827B7FD83959927AA27BB27B82E8A
:1008D000211531054105510519F482E089833AC09B
:1008E0008823A9F0203080E0380780E0480780E8BE
:1008F000580729F460E070E080E09FEC30C0EE24FF
:10090000FF248701E21AF30A040B150B02C07901D8
:100910008A018EE1C82ED12CDC82CB82ED82FE8250
:100920000F831887C801B7010E9480050197181628
:10093000190684F4082E04C0EE0CFF1C001F111FC2
:100940000A94D2F7ED82FE820F831887C81AD90A5B
:10095000DC82CB82BA82CE0101960E94CF05289616
:10096000E9E00C94342BACE0B0E0E9EBF4E00C945B
:100970001F2B69837A838B839C83CE010196BE01F2
:100980006B5F7F4F0E94A4068D81823061F18230BF
:1009900050F1843021F48E81882351F12EC02F81B3
:1009A000388537FD20C06E812F3131051CF066235C
:1009B000F9F023C08EE190E0821B930B29853A85E4
:1009C0004B855C8504C056954795379527958A9544
:1009D000D2F76623B1F050954095309521953F4F61
:1009E0004F4F5F4F0EC020E030E040E050E009C0C4
:1009F0002FEF3FEF4FEF5FE704C020E030E040E033
:100A000050E8B901CA012C96E2E00C943B2BA8E017
:100A1000B0E0EDE0F5E00C94172B7B018C01611543
:100A200071058105910519F482E0898360C083E036
:100A300089838EE1C82ED12CDC82CB82ED82FE82AE
:100A40000F831887C801B7010E948005FC01319708
:100A5000F7FF3BC0222733272E1B3F0B57016801AE
:100A6000022E04C0D694C794B794A7940A94D2F7E0
:100A700040E050E060E070E081E090E0A0E0B0E0B5
:100A800004C0880F991FAA1FBB1F2A95D2F7019790
:100A9000A109B1098E219F21A023B1230097A105AF
:100AA000B10521F041E050E060E070E04A295B29A7
:100AB0006C297D294D835E836F8378878EE190E07A
:100AC0008E1B9F0B9C838B8312C0309781F00E2E60
:100AD00004C0EE0CFF1C001F111F0A94D2F7ED8218
:100AE000FE820F831887CE1ADF0ADC82CB821A823D
:100AF000CE0101960E94CF052896EAE00C94332B94
:100B0000EF92FF920F931F937B018C0180E0E81618
:100B100080E0F80681E0080780E0180788F48FEF8E
:100B2000E816F1040105110531F028F088E090E0A5
:100B3000A0E0B0E017C080E090E0A0E0B0E012C01C
:100B400080E0E81680E0F80680E0080781E01807FA
:100B500028F088E190E0A0E0B0E004C080E190E0FF
:100B6000A0E0B0E020E230E040E050E0281B390B8C
:100B70004A0B5B0B04C016950795F794E7948A958A
:100B8000D2F7F701E05DFE4F8081281B3109410952
:100B90005109C9011F910F91FF90EF900895DF92C5
:100BA000EF92FF920F931F93FC01E480F580068182
:100BB0001781D1808081823048F480E090E0A0E10C
:100BC000B0E0E82AF92A0A2B1B2BA5C0843009F4CF
:100BD0009FC0823021F4EE24FF24870105C0E11478
:100BE000F1040105110519F4E0E0F0E096C062811E
:100BF00073819FEF623879070CF05BC022E83FEF0A
:100C0000261B370B2A3131052CF020E030E040E084
:100C100050E02AC0B801A701022E04C0769567955E
:100C2000579547950A94D2F781E090E0A0E0B0E0B4
:100C300004C0880F991FAA1FBB1F2A95D2F70197DE
:100C4000A109B1098E219F21A023B1230097A105FD
:100C5000B10521F081E090E0A0E0B0E09A01AB01A5
:100C6000282B392B4A2B5B2BDA01C9018F77907027
:100C7000A070B07080349105A105B10539F427FF4B
:100C800009C0205C3F4F4F4F5F4F04C0215C3F4F76
:100C90004F4F5F4FE0E0F0E02030A0E03A07A0E0E7
:100CA0004A07A0E45A0710F0E1E0F0E079018A0178
:100CB00027C06038710564F5FB01E158FF4FD8018A
:100CC000C7018F779070A070B07080349105A10536
:100CD000B10539F4E7FE0DC080E490E0A0E0B0E09B
:100CE00004C08FE390E0A0E0B0E0E80EF91E0A1F18
:100CF0001B1F17FF05C016950795F794E7943196CB
:100D000087E016950795F794E7948A95D1F705C083
:100D1000EE24FF248701EFEFF0E06E2F6795662742
:100D20006795902F9F77D794DD24D7948E2F869543
:100D3000492F462B582F5D29B701CA011F910F91EA
:100D4000FF90EF90DF900895FC01DB01408151811D
:100D50002281622F6F7770E0221F2227221F93814A
:100D6000892F880F822B282F30E0991F9927991FF0
:100D700011969C93119721153105A9F5411551053F
:100D80006105710511F482E037C082E89FEF139688
:100D90009C938E9312979A01AB0167E0220F331F49
:100DA000441F551F6A95D1F783E08C930DC0220F25
:100DB000331F441F551F12968D919C9113970197D5
:100DC00013969C938E931297203080E0380780E032
:100DD000480780E4580758F314962D933D934D939C
:100DE0005C93179708952F3F310579F4411551050C
:100DF0006105710519F484E08C93089564FF03C0C4
:100E000081E08C9312C01C9210C02F573040139673
:100E10003C932E93129783E08C9387E0440F551FE9
:100E2000661F771F8A95D1F7706414964D935D9372
:100E30006D937C93179708951F93DC01FB019C91A0
:100E4000923008F447C08081823008F443C0943067
:100E500051F411961C91843099F58181682F70E0CE
:100E6000611B71093FC0843021F0923031F482302F
:100E7000B9F18181882389F12DC011961C911197B8
:100E80008230F1F081811817D9F412962D913C919E
:100E90001397828193818217930794F0281739075B
:100EA000BCF014968D919D910D90BC91A02D248144
:100EB000358146815781281739074A075B0718F49F
:100EC000112341F00AC082179307A407B50740F425
:100ED000112319F061E070E005C06FEF7FEF02C0F1
:100EE00060E070E0CB011F910895DF93CF9300D0B5
:100EF0000F92CDB7DEB789836A834B830E947F232D
:100F00008A8162E00E94A0238B810E94F123898163
:100F10000E94F1230E943D240F900F900F90CF91DB
:100F2000DF910895DF93CF9300D000D0CDB7DEB727
:100F300089836A835C834B830E947F23898162E07B
:100F40000E94A0238A810E94F1230E947F2389812D
:100F500061E00E94A0230E941924EB81FC81808320
:100F60000E943D240F900F900F900F90CF91DF9132
:100F70000895DF93CF93CDB7DEB763970FB6F8949C
:100F8000DEBF0FBECDBF988B8F87698B4A8B2B8BB3
:100F900091C00E947F238A8962E00E94A0239B89DE
:100FA0008989890F81500E94F1238989882F90E0D7
:100FB0009C01215030408F859889FC01E20FF31F7E
:100FC00080810E94F1230E943D2480E090E0A0E710
:100FD000B1E48B879C87AD87BE876B857C858D85CB
:100FE0009E8520E030E04AEF54E40E941F02DC01BD
:100FF000CB018F839887A987BA876F817885898588
:101000009A8520E030E040E85FE30E9425048823D1
:101010002CF481E090E09E838D833FC06F817885C2
:1010200089859A8520E03FEF4FE757E40E94C5038A
:1010300018164CF56B857C858D859E8520E030E00B
:1010400040E251E40E941F02DC01CB01BC01CD0152
:101050000E944900DC01CB019E838D830FC088EC88
:1010600090E09C838B838B819C810197F1F79C831B
:101070008B838D819E8101979E838D838D819E813F
:10108000009769F714C06F81788589859A850E94D9
:101090004900DC01CB019E838D838D819E819A83E3
:1010A000898389819A810197F1F79A838983898954
:1010B0008150898B8989882309F06BCF63960FB69D
:1010C000F894DEBF0FBECDBFCF91DF9108950F938F
:1010D0001F93DF93CF9300D000D00F92CDB7DEB730
:1010E00089836A834B833D832C8326C00E947F23A0
:1010F000898162E00E94A0239A818B81890F8150AF
:101100000E94F1230E947F23898161E00E94A02335
:101110008B81882F90E09C01215030408C819D81F3
:101120008C01020F131F0E941924F80180830E9472
:101130003D248B8181508B838B818823B9F60F905E
:101140000F900F900F900F90CF91DF911F910F9103
:101150000895DF93CF93CDB7DEB7A2970FB6F8947B
:10116000DEBF0FBECDBF1C821B8281E08D831A8241
:10117000198284E08E8385E08F8386E0888787E00C
:10118000898785E08A8784E08B8783E08C8782E08B
:101190008D87CE010E969F8F8E8FE5E3F2E0F9A347
:1011A000E8A3F0E1FAA3E8A1F9A1008088A199A140
:1011B000019699A388A3EE8DFF8D00828E8D9F8D61
:1011C00001969F8F8E8F9AA191509AA3EAA1EE2348
:1011D00051F71A8295C08A81282F30E0CE010696F9
:1011E000FC01E20FF31F908184E0692F40E00E9430
:1011F0000B1D8A81282F30E0CE010696FC01E20FFC
:10120000F31F908184E0692F40E00E940B1D8A81CA
:10121000282F30E0CE010696FC01E20FF31F9081EB
:1012200084E0692F40E00E940B1D8A81282F30E066
:10123000CE010696FC01E20FF31F908184E0692F36
:1012400040E00E940B1D198243C08981282F30E0A5
:10125000CE010A96FC01E20FF31F90819E012B5FE5
:101260003F4F83E0692FA9010E941A1E8D818823B8
:1012700061F511C08981282F30E0CE010A96FC016A
:10128000E20FF31F90819E012B5F3F4F83E0692F98
:10129000A9010E941A1E8D81882361F38981282F5C
:1012A00030E08A81482F50E0220F331F220F331F76
:1012B000CE010196820F931F840F951FFC013D966E
:1012C00080818B8381E08C8307C089818F5F8983D4
:1012D0008981843008F4B9CF8A81282F30E0CE018B
:1012E0000696FC01E20FF31F908184E0692F41E034
:1012F0000E940B1D8C81882339F48A818F5F8A8339
:101300008A81843008F467CF8B81A2960FB6F89457
:10131000DEBF0FBECDBFCF91DF9108950F931F9316
:10132000DF93CF93CDB7DEB7C859D0400FB6F8944E
:10133000DEBF0FBECDBFFE01EB56FF4F80E090E059
:10134000A0E2B2E480839183A283B3838E010F561F
:101350001F4FFE01EB56FF4F6081718182819381A7
:1013600020E030E04AEF54E40E941F02DC01CB0190
:10137000F80180839183A283B383FE01EF56FF4F70
:10138000608171818281938120E030E040E85FE3F9
:101390000E942504882344F4FE01E157FF4F81E0B9
:1013A00090E09183808364C0FE01EF56FF4F60811F
:1013B00071818281938120E03FEF4FE757E40E94E3
:1013C000C50318160CF043C0FE01EB56FF4F6081B9
:1013D00071818281938120E030E040E251E40E94FB
:1013E0001F02DC01CB018E0101571F4FBC01CD0153
:1013F0000E944900DC01CB01F801918380831FC06A
:10140000FE01E357FF4F88EC90E091838083FE015B
:10141000E357FF4F808191810197F1F7FE01E35778
:10142000FF4F91838083DE01A157BF4FFE01E1573B
:10143000FF4F80819181019711969C938E93FE01BD
:10144000E157FF4F808191810097D1F627C08E012F
:1014500001571F4FFE01EF56FF4F6081718182815E
:1014600093810E944900DC01CB01F80191838083C4
:10147000DE01A557BF4FFE01E157FF4F80819181EB
:101480008D939C93FE01E557FF4F808191810197D9
:10149000F1F7FE01E557FF4F9183808381E062E021
:1014A00041E00E940B1D81E063E041E00E940B1DC2
:1014B00081E064E040E00E940B1D81E065E040E0D7
:1014C0000E940B1D82E060E040E00E940B1D82E064
:1014D00061E040E00E940B1D82E063E041E00E9479
:1014E0000B1DFE01E957FF4F80E090E0A0E8BFE34D
:1014F00080839183A283B3838E010D571F4FFE011A
:10150000E957FF4F60817181828193812BEA3AEA2A
:101510004AE250E40E941F02DC01CB01F801808303
:101520009183A283B383FE01ED57FF4F60817181E8
:101530008281938120E030E040E85FE30E9425044F
:10154000882334F4FE01EE57FF4F81E08083E0C032
:10155000FE01ED57FF4F608171818281938120E010
:1015600030E04FE753E40E94C50318160CF0C0C0EA
:10157000FE01E957FF4F608171818281938120E0F4
:1015800030E04AE754E40E941903DC01CB01FE017C
:10159000E258FF4F80839183A283B3838E01065864
:1015A0001F4FFE01E258FF4F60817181828193815C
:1015B00020E030E04AEF54E40E941F02DC01CB013E
:1015C000F80180839183A283B383FE01E658FF4F25
:1015D000608171818281938120E030E040E85FE3A7
:1015E0000E942504882344F4FE01E858FF4F81E05F
:1015F00090E09183808364C0FE01E658FF4F6081D4
:1016000071818281938120E03FEF4FE757E40E9490
:10161000C50318160CF043C0FE01E258FF4F60816D
:1016200071818281938120E030E040E251E40E94A8
:101630001F02DC01CB018E0108581F4FBC01CD01F8
:101640000E944900DC01CB01F801918380831FC017
:10165000FE01EA58FF4F88EC90E091838083FE0101
:10166000EA58FF4F808191810197F1F7FE01EA5816
:10167000FF4F91838083DE01A858BF4FFE01E858D9
:10168000FF4F80819181019711969C938E93FE016B
:10169000E858FF4F808191810097D1F64BC08E01B1
:1016A00008581F4FFE01E658FF4F6081718182810B
:1016B00093810E944900DC01CB01F8019183808372
:1016C000DE01AC58BF4FFE01E858FF4F8081918189
:1016D00011969C938E93FE01EC58FF4F808191816F
:1016E0000197F1F7FE01EC58FF4F9183808322C0F0
:1016F0008E010E571F4FFE01ED57FF4F6081718124
:10170000828193810E944900DC01CB01F801808332
:10171000DE01AD58BF4FFE01EE57FF4F80818C9325
:10172000FE01ED58FF4F80818A95F1F7FE01ED58DB
:10173000FF4F808382E063E040E00E940B1DFE01CA
:10174000E159FF4F80E090E0A0EAB0E4808391830C
:10175000A283B3838E0105591F4FFE01E159FF4F4C
:10176000608171818281938120E030E04AEF54E40E
:101770000E941F02DC01CB01F80180839183A283C8
:10178000B383FE01E559FF4F6081718182819381AE
:1017900020E030E040E85FE30E942504882344F421
:1017A000FE01E759FF4F81E090E09183808364C0A0
:1017B000FE01E559FF4F608171818281938120E0B4
:1017C0003FEF4FE757E40E94C50318160CF043C0E3
:1017D000FE01E159FF4F608171818281938120E098
:1017E00030E040E251E40E941F02DC01CB018E0197
:1017F00007591F4FBC01CD010E944900DC01CB01FC
:10180000F801918380831FC0FE01E959FF4F88ECE6
:1018100090E091838083FE01E959FF4F808191819F
:101820000197F1F7FE01E959FF4F91838083DE01B3
:10183000A759BF4FFE01E759FF4F80819181019762
:1018400011969C938E93FE01E759FF4F8081918101
:101850000097D1F627C08E0107591F4FFE01E559A9
:10186000FF4F60817181828193810E944900DC0178
:10187000CB01F80191838083DE01AB59BF4FFE019C
:10188000E759FF4F808191818D939C93FE01EB5925
:10189000FF4F808191810197F1F7FE01EB59FF4FD6
:1018A0009183808381E062E041E00E940B1D81E032
:1018B00063E041E00E940B1D81E064E040E00E9493
:1018C0000B1D81E065E040E00E940B1D82E060E0BE
:1018D00040E00E940B1D82E061E040E00E940B1D91
:1018E00082E063E041E00E940B1DFE01EF59FF4FD3
:1018F00080E090E0A0E8BFE380839183A283B3837C
:101900008E01035A1F4FFE01EF59FF4F6081718115
:10191000828193812BEA3AEA4AE250E40E941F0254
:10192000DC01CB01F80180839183A283B383FE01A4
:10193000E35AFF4F608171818281938120E030E022
:1019400040E85FE30E942504882334F4FE01E45A52
:10195000FF4F81E08083E0C0FE01E35AFF4F6081CA
:1019600071818281938120E030E04FE753E40E944F
:10197000C50318160CF0C0C0FE01EF59FF4F60817F
:1019800071818281938120E030E04AE754E40E9433
:101990001903DC01CB01FE01E85AFF4F80839183DC
:1019A000A283B3838E010C5A1F4FFE01E85AFF4FEA
:1019B000608171818281938120E030E04AEF54E4BC
:1019C0000E941F02DC01CB01F80180839183A28376
:1019D000B383FE01EC5AFF4F608171818281938154
:1019E00020E030E040E85FE30E942504882344F4CF
:1019F000FE01EE5AFF4F81E090E09183808364C046
:101A0000FE01EC5AFF4F608171818281938120E059
:101A10003FEF4FE757E40E94C50318160CF043C090
:101A2000FE01E85AFF4F608171818281938120E03D
:101A300030E040E251E40E941F02DC01CB018E0144
:101A40000E5A1F4FBC01CD010E944900DC01CB01A1
:101A5000F801918380831FC0FE01E05BFF4F88EC9B
:101A600090E091838083FE01E05BFF4F8081918154
:101A70000197F1F7FE01E05BFF4F91838083DE0168
:101A8000AE5ABF4FFE01EE5AFF4F80819181019700
:101A900011969C938E93FE01EE5AFF4F80819181A7
:101AA0000097D1F64BC08E010E5A1F4FFE01EC5A23
:101AB000FF4F60817181828193810E944900DC0126
:101AC000CB01F80191838083DE01A25BBF4FFE0151
:101AD000EE5AFF4F8081918111969C938E93FE0167
:101AE000E25BFF4F808191810197F1F7FE01E25B9C
:101AF000FF4F9183808322C08E01045A1F4FFE0145
:101B0000E35AFF4F60817181828193810E94490075
:101B1000DC01CB01F8018083DE01A35BBF4FFE0136
:101B2000E45AFF4F80818C93FE01E35BFF4F80817D
:101B30008A95F1F7FE01E35BFF4F808382E063E06B
:101B400040E00E940B1DFE01E75BFF4F80E090E04C
:101B5000A0E8BFE380839183A283B3838E010B5BF4
:101B60001F4FFE01E75BFF4F60817181828193818E
:101B700020E030E04AEF54E40E941F02DC01CB0178
:101B8000F80180839183A283B383FE01EB5BFF4F57
:101B9000608171818281938120E030E040E85FE3E1
:101BA0000E942504882344F4FE01ED5BFF4F81E091
:101BB00090E09183808364C0FE01EB5BFF4F608106
:101BC00071818281938120E03FEF4FE757E40E94CB
:101BD000C50318160CF043C0FE01E75BFF4F6081A0
:101BE00071818281938120E030E040E251E40E94E3
:101BF0001F02DC01CB018E010D5B1F4FBC01CD012B
:101C00000E944900DC01CB01F801918380831FC051
:101C1000FE01EF5BFF4F88EC90E091838083FE0133
:101C2000EF5BFF4F808191810197F1F7FE01EF5B40
:101C3000FF4F91838083DE01AD5BBF4FFE01ED5B03
:101C4000FF4F80819181019711969C938E93FE01A5
:101C5000ED5BFF4F808191810097D1F624C08E010A
:101C60000D5B1F4FFE01EB5BFF4F60817181828135
:101C700093810E944900DC01CB01F80191838083AC
:101C8000FE01ED5BFF4F80819181FE01FF96918304
:101C90008083FE01FF96808191810197F1F7FE011B
:101CA000FF969183808381E062E041E00E940B1DFA
:101CB00081E063E041E00E940B1D81E064E040E0D0
:101CC0000E940B1D81E065E040E00E940B1D82E058
:101CD00060E040E00E940B1D82E061E040E00E9475
:101CE0000B1D82E063E041E00E940B1D80E090E06C
:101CF000A0E8BFE38BAF9CAFADAFBEAF6BAD7CAD2B
:101D00008DAD9EAD2BEA3AEA4AE250E40E941F02F2
:101D1000DC01CB018FAB98AFA9AFBAAF6FA978AD9B
:101D200089AD9AAD20E030E040E85FE30E942504F1
:101D300088231CF481E08EAB91C06FA978AD89AD8A
:101D40009AAD20E030E04FE753E40E94C503181637
:101D50000CF07BC06BAD7CAD8DAD9EAD20E030E076
:101D60004AE754E40E941903DC01CB018AAB9BAB28
:101D7000ACABBDAB6AA97BA98CA99DA920E030E0E2
:101D80004AEF54E40E941F02DC01CB018EA79FA7FB
:101D9000A8ABB9AB6EA57FA588A999A920E030E0D2
:101DA00040E85FE30E94250488232CF481E090E062
:101DB0009DA78CA73FC06EA57FA588A999A920E003
:101DC0003FEF4FE757E40E94C50318164CF56AA988
:101DD0007BA98CA99DA920E030E040E251E40E945B
:101DE0001F02DC01CB01BC01CD010E944900DC01D6
:101DF000CB019DA78CA70FC088EC90E09BA78AA77A
:101E00008AA59BA50197F1F79BA78AA78CA59DA5FD
:101E100001979DA78CA78CA59DA5009769F724C065
:101E20006EA57FA588A999A90E944900DC01CB0174
:101E30009DA78CA78CA59DA599A788A788A599A5DE
:101E40000197F1F799A788A70FC06FA978AD89AD61
:101E50009AAD0E944900DC01CB018EAB8EA98FA305
:101E60008FA18A95F1F78FA382E063E040E00E94A2
:101E70000B1D81E062E040E00E940B1D81E063E009
:101E800041E00E940B1D81E064E040E00E940B1DD8
:101E900081E065E040E00E940B1D82E060E040E0F0
:101EA0000E940B1D82E061E040E00E940B1D82E079
:101EB00063E041E00E940B1D80E090E0A0E8BFE3FA
:101EC0008BA39CA3ADA3BEA36BA17CA18DA19EA15E
:101ED0002BEA3AEA4AE250E40E941F02DC01CB01FD
:101EE0008F8F98A3A9A3BAA36F8D78A189A19AA176
:101EF00020E030E040E85FE30E94250488231CF4E2
:101F000081E08E8F91C06F8D78A189A19AA120E088
:101F100030E04FE753E40E94C50318160CF07BC075
:101F20006BA17CA18DA19EA120E030E04AE754E4A2
:101F30000E941903DC01CB018A8F9B8FAC8FBD8F70
:101F40006A8D7B8D8C8D9D8D20E030E04AEF54E4CE
:101F50000E941F02DC01CB018E8B9F8BA88FB98F53
:101F60006E897F89888D998D20E030E040E85FE3BD
:101F70000E94250488232CF481E090E09D8B8C8BBB
:101F80003FC06E897F89888D998D20E03FEF4FE7B4
:101F900057E40E94C50318164CF56A8D7B8D8C8D15
:101FA0009D8D20E030E040E251E40E941F02DC0100
:101FB000CB01BC01CD010E944900DC01CB019D8B0E
:101FC0008C8B0FC088EC90E09B8B8A8B8A899B89D5
:101FD0000197F1F79B8B8A8B8C899D8901979D8B4B
:101FE0008C8B8C899D89009769F724C06E897F89C5
:101FF000888D998D0E944900DC01CB019D8B8C8BD3
:102000008C899D89998B888B888999890197F1F7AB
:10201000998B888B0FC06F8D78A189A19AA10E949E
:102020004900DC01CB018E8F8E8D8F878F858A953D
:10203000F1F78F8782E063E040E00E940B1D82E0B1
:102040000E945E1488E20E945E148CE00E945E147E
:1020500086E00E945E1481E00E945E1480E090E0C1
:10206000A0E0B0E48B879C87AD87BE876B857C85BD
:102070008D859E8520E030E04AEF54E40E941F02E7
:10208000DC01CB018F839887A987BA876F81788518
:1020900089859A8520E030E040E85FE30E942504CE
:1020A00088232CF481E090E09E838D833FC06F8174
:1020B000788589859A8520E03FEF4FE757E40E94B5
:1020C000C50318164CF56B857C858D859E8520E0B3
:1020D00030E040E251E40E941F02DC01CB01BC0170
:1020E000CD010E944900DC01CB019E838D830FC08E
:1020F00088EC90E09C838B838B819C810197F1F726
:102100009C838B838D819E8101979E838D838D819E
:102110009E81009769F714C06F81788589859A85BB
:102120000E944900DC01CB019E838D838D819E81BD
:102130009A83898389819A810197F1F79A838983A8
:10214000C856DF4F0FB6F894DEBF0FBECDBFCF919C
:10215000DF911F910F9108950F931F93DF93CF93FA
:10216000CDB7DEB7C755D0400FB6F894DEBF0FBE6F
:10217000CDBFFE01E95AFF4F8083FE01E95AFF4FB0
:10218000808182958F70982F917081E062E0492F55
:102190000E940B1DFE01E95AFF4F808182958695B2
:1021A0008770982F917081E063E0492F0E940B1D8A
:1021B000FE01E95AFF4F808182958695869583704E
:1021C000982F917081E064E0492F0E940B1DFE0161
:1021D000E95AFF4F8081982F991F9927991F81E015
:1021E00065E0492F0E940B1D82E060E041E00E9403
:1021F0000B1D82E061E040E00E940B1D82E063E085
:1022000041E00E940B1DFE01ED5AFF4F80E090E07F
:10221000A0E8BFE380839183A283B3838E01015B37
:102220001F4FFE01ED5AFF4F6081718182819381C2
:102230002BEA3AEA4AE250E40E941F02DC01CB0199
:10224000F80180839183A283B383FE01E15BFF4F9A
:10225000608171818281938120E030E040E85FE31A
:102260000E942504882334F4FE01E25BFF4F81E0E5
:102270008083E0C0FE01E15BFF4F6081718182815C
:10228000938120E030E04FE753E40E94C503181625
:102290000CF0C0C0FE01ED5AFF4F60817181828158
:1022A000938120E030E04AE754E40E941903DC0106
:1022B000CB01FE01E65BFF4F80839183A283B38352
:1022C0008E010A5B1F4FFE01E65BFF4F608171814B
:1022D0008281938120E030E04AEF54E40E941F02A3
:1022E000DC01CB01F80180839183A283B383FE01DB
:1022F000EA5BFF4F608171818281938120E030E051
:1023000040E85FE30E942504882344F4FE01EC5B6F
:10231000FF4F81E090E09183808364C0FE01EA5B1F
:10232000FF4F608171818281938120E03FEF4FE711
:1023300057E40E94C50318160CF043C0FE01E65B8B
:10234000FF4F608171818281938120E030E040E223
:1023500051E40E941F02DC01CB018E010C5B1F4F78
:10236000BC01CD010E944900DC01CB01F801918341
:1023700080831FC0FE01EE5BFF4F88EC90E09183ED
:102380008083FE01EE5BFF4F808191810197F1F721
:10239000FE01EE5BFF4F91838083DE01AC5BBF4F9C
:1023A000FE01EC5BFF4F80819181019711969C9318
:1023B0008E93FE01EC5BFF4F808191810097D1F6F7
:1023C00042C08E010C5B1F4FFE01EA5BFF4F608134
:1023D0007181828193810E944900DC01CB01F80167
:1023E00091838083DE01A05CBF4FFE01EC5BFF4F59
:1023F0008081918111969C938E93FE01E05CFF4F4A
:10240000808191810197F1F7FE01E05CFF4F91839C
:10241000808319C08E01025B1F4FFE01E15BFF4FFD
:1024200060817181828193810E944900DC01CB012E
:10243000F8018083FE01E25BFF4F80818FAF8FAD9B
:102440008A95F1F78FAF82E063E040E00E940B1DB8
:1024500080E090E0A8E4B3E48BAF9CAFADAFBEAF3B
:102460006BAD7CAD8DAD9EAD2BEA3AEA4AE250E40D
:102470000E941F02DC01CB018FAB98AFA9AFBAAFAE
:102480006FA978AD89AD9AAD20E030E040E85FE318
:102490000E94250488231CF481E08EAB91C06FA9B3
:1024A00078AD89AD9AAD20E030E04FE753E40E946B
:1024B000C50318160CF07BC06BAD7CAD8DAD9EAD29
:1024C00020E030E04AE754E40E941903DC01CB012C
:1024D0008AAB9BABACABBDAB6AA97BA98CA99DA910
:1024E00020E030E04AEF54E40E941F02DC01CB01FF
:1024F0008EA79FA7A8ABB9AB6EA57FA588A999A900
:1025000020E030E040E85FE30E94250488232CF4BB
:1025100081E090E09DA78CA73FC06EA57FA588A90C
:1025200099A920E03FEF4FE757E40E94C503181632
:102530004CF56AA97BA98CA99DA920E030E040E276
:1025400051E40E941F02DC01CB01BC01CD010E94BD
:102550004900DC01CB019DA78CA70FC088EC90E05F
:102560009BA78AA78AA59BA50197F1F79BA78AA796
:102570008CA59DA501979DA78CA78CA59DA50097CF
:1025800069F724C06EA57FA588A999A90E94490072
:10259000DC01CB019DA78CA78CA59DA599A788A739
:1025A00088A599A50197F1F799A788A70FC06FA9EA
:1025B00078AD89AD9AAD0E944900DC01CB018EABAC
:1025C0008EA98FA38FA18A95F1F78FA3FE01E95AF7
:1025D000FF4F8081982F917081E062E0492F0E9427
:1025E0000B1DFE01E95AFF4F80818695982F91704F
:1025F00081E063E0492F0E940B1DFE01E95AFF4F65
:10260000808186958695982F917081E064E0492FAE
:102610000E940B1DFE01E95AFF4F80818695869529
:102620008695982F917081E065E0492F0E940B1DDF
:1026300082E063E041E00E940B1D80E090E0A0E8B2
:10264000BFE38BA39CA3ADA3BEA36BA17CA18DA173
:102650009EA12BEA3AEA4AE250E40E941F02DC0102
:10266000CB018F8F98A3A9A3BAA36F8D78A189A15D
:102670009AA120E030E040E85FE30E94250488232F
:102680001CF481E08E8F91C06F8D78A189A19AA1F1
:1026900020E030E04FE753E40E94C50318160CF029
:1026A0007BC06BA17CA18DA19EA120E030E04AE718
:1026B00054E40E941903DC01CB018A8F9B8FAC8FFD
:1026C000BD8F6A8D7B8D8C8D9D8D20E030E04AEF33
:1026D00054E40E941F02DC01CB018E8B9F8BA88FDC
:1026E000B98F6E897F89888D998D20E030E040E830
:1026F0005FE30E94250488232CF481E090E09D8B09
:102700008C8B3FC06E897F89888D998D20E03FEF4B
:102710004FE757E40E94C50318164CF56A8D7B8D70
:102720008C8D9D8D20E030E040E251E40E941F023C
:10273000DC01CB01BC01CD010E944900DC01CB01D1
:102740009D8B8C8B0FC088EC90E09B8B8A8B8A8949
:102750009B890197F1F79B8B8A8B8C899D890197C7
:102760009D8B8C8B8C899D89009769F724C06E891D
:102770007F89888D998D0E944900DC01CB019D8B5A
:102780008C8B8C899D89998B888B888999890197F5
:10279000F1F7998B888B0FC06F8D78A189A19AA1D1
:1027A0000E944900DC01CB018E8F8E8D8F878F8533
:1027B0008A95F1F78F8782E063E040E00E940B1D6D
:1027C00080E090E0A0E0B0E48B879C87AD87BE8777
:1027D0006B857C858D859E8520E030E04AEF54E452
:1027E0000E941F02DC01CB018F839887A987BA87DB
:1027F0006F81788589859A8520E030E040E85FE345
:102800000E94250488232CF481E090E09E838D8330
:102810003FC06F81788589859A8520E03FEF4FE73B
:1028200057E40E94C50318164CF56B857C858D8591
:102830009E8520E030E040E251E40E941F02DC016E
:10284000CB01BC01CD010E944900DC01CB019E837C
:102850008D830FC088EC90E09C838B838B819C815F
:102860000197F1F79C838B838D819E8101979E83D5
:102870008D838D819E81009769F714C06F81788563
:1028800089859A850E944900DC01CB019E838D8356
:102890008D819E819A83898389819A810197F1F73D
:1028A0009A838983C95ADF4F0FB6F894DEBF0FBEF3
:1028B000CDBFCF91DF911F910F9108950F931F937B
:1028C000DF93CF93CDB7DEB7C755D0400FB6F8949E
:1028D000DEBF0FBECDBFFE01E95AFF4F8083FE0170
:1028E000E95AFF4F808182958F70982F917081E017
:1028F00062E0492F0E940B1DFE01E95AFF4F8081C3
:10290000829586958770982F917081E063E0492FBA
:102910000E940B1DFE01E95AFF4F8081829586952A
:1029200086958370982F917081E064E0492F0E9412
:102930000B1DFE01E95AFF4F8081982F991F99279F
:10294000991F81E065E0492F0E940B1D82E060E045
:1029500040E00E940B1D82E061E040E00E940B1D00
:1029600082E063E041E00E940B1DFE01ED5AFF4F43
:1029700080E090E0A0E8BFE380839183A283B383EB
:102980008E01015B1F4FFE01ED5AFF4F6081718187
:10299000828193812BEA3AEA4AE250E40E941F02C4
:1029A000DC01CB01F80180839183A283B383FE0114
:1029B000E15BFF4F608171818281938120E030E093
:1029C00040E85FE30E942504882334F4FE01E25BC3
:1029D000FF4F81E08083E0C0FE01E15BFF4F60813B
:1029E00071818281938120E030E04FE753E40E94BF
:1029F000C50318160CF0C0C0FE01ED5AFF4F6081F0
:102A000071818281938120E030E04AE754E40E94A2
:102A10001903DC01CB01FE01E65BFF4F808391834C
:102A2000A283B3838E010A5B1F4FFE01E65BFF4F5B
:102A3000608171818281938120E030E04AEF54E42B
:102A40000E941F02DC01CB01F80180839183A283E5
:102A5000B383FE01EA5BFF4F6081718182819381C4
:102A600020E030E040E85FE30E942504882344F43E
:102A7000FE01EC5BFF4F81E090E09183808364C0B6
:102A8000FE01EA5BFF4F608171818281938120E0CA
:102A90003FEF4FE757E40E94C50318160CF043C000
:102AA000FE01E65BFF4F608171818281938120E0AE
:102AB00030E040E251E40E941F02DC01CB018E01B4
:102AC0000C5B1F4FBC01CD010E944900DC01CB0112
:102AD000F801918380831FC0FE01EE5BFF4F88ECFD
:102AE00090E091838083FE01EE5BFF4F80819181B6
:102AF0000197F1F7FE01EE5BFF4F91838083DE01CA
:102B0000AC5BBF4FFE01EC5BFF4F80819181019771
:102B100011969C938E93FE01EC5BFF4F8081918117
:102B20000097D1F642C08E010C5B1F4FFE01EA5B9D
:102B3000FF4F60817181828193810E944900DC0195
:102B4000CB01F80191838083DE01A05CBF4FFE01C1
:102B5000EC5BFF4F8081918111969C938E93FE01D7
:102B6000E05CFF4F808191810197F1F7FE01E05C0D
:102B7000FF4F9183808319C08E01025B1F4FFE01BE
:102B8000E15BFF4F60817181828193810E944900E6
:102B9000DC01CB01F8018083FE01E25BFF4F808105
:102BA0008FAF8FAD8A95F1F78FAF82E063E040E0A1
:102BB0000E940B1D80E090E0A8E4B3E48BAF9CAFD3
:102BC000ADAFBEAF6BAD7CAD8DAD9EAD2BEA3AEA3D
:102BD0004AE250E40E941F02DC01CB018FAB98AFA8
:102BE000A9AFBAAF6FA978AD89AD9AAD20E030E05A
:102BF00040E85FE30E94250488231CF481E08EAB4B
:102C000091C06FA978AD89AD9AAD20E030E04FE773
:102C100053E40E94C50318160CF07BC06BAD7CAD6D
:102C20008DAD9EAD20E030E04AE754E40E941903E8
:102C3000DC01CB018AAB9BABACABBDAB6AA97BA97A
:102C40008CA99DA920E030E04AEF54E40E941F02C5
:102C5000DC01CB018EA79FA7A8ABB9AB6EA57FA562
:102C600088A999A920E030E040E85FE30E942504AC
:102C700088232CF481E090E09DA78CA73FC06EA52F
:102C80007FA588A999A920E03FEF4FE757E40E946C
:102C9000C50318164CF56AA97BA98CA99DA920E04B
:102CA00030E040E251E40E941F02DC01CB01BC0194
:102CB000CD010E944900DC01CB019DA78CA70FC06C
:102CC00088EC90E09BA78AA78AA59BA50197F1F7BE
:102CD0009BA78AA78CA59DA501979DA78CA78CA5CE
:102CE0009DA5009769F724C06EA57FA588A999A91D
:102CF0000E944900DC01CB019DA78CA78CA59DA556
:102D000099A788A788A599A50197F1F799A788A7FA
:102D10000FC06FA978AD89AD9AAD0E944900DC0162
:102D2000CB018EAB8EA98FA38FA18A95F1F78FA3CC
:102D3000FE01E95AFF4F8081982F917081E062E097
:102D4000492F0E940B1DFE01E95AFF4F8081869595
:102D5000982F917081E063E0492F0E940B1DFE01C6
:102D6000E95AFF4F808186958695982F917081E072
:102D700064E0492F0E940B1DFE01E95AFF4F80813C
:102D8000869586958695982F917081E065E0492F0C
:102D90000E940B1D82E063E041E00E940B1D80E079
:102DA00090E0A0E8BFE38BA39CA3ADA3BEA36BA15F
:102DB0007CA18DA19EA12BEA3AEA4AE250E40E944E
:102DC0001F02DC01CB018F8F98A3A9A3BAA36F8D3B
:102DD00078A189A19AA120E030E040E85FE30E9459
:102DE000250488231CF481E08E8F91C06F8D78A11B
:102DF00089A19AA120E030E04FE753E40E94C50387
:102E000018160CF07BC06BA17CA18DA19EA120E0C7
:102E100030E04AE754E40E941903DC01CB018A8FB9
:102E20009B8FAC8FBD8F6A8D7B8D8C8D9D8D20E0AF
:102E300030E04AEF54E40E941F02DC01CB018E8B8C
:102E40009F8BA88FB98F6E897F89888D998D20E09F
:102E500030E040E85FE30E94250488232CF481E001
:102E600090E09D8B8C8B3FC06E897F89888D998D7A
:102E700020E03FEF4FE757E40E94C50318164CF5DA
:102E80006A8D7B8D8C8D9D8D20E030E040E251E499
:102E90000E941F02DC01CB01BC01CD010E94490050
:102EA000DC01CB019D8B8C8B0FC088EC90E09B8B61
:102EB0008A8B8A899B890197F1F79B8B8A8B8C89F6
:102EC0009D8901979D8B8C8B8C899D89009769F7D3
:102ED00024C06E897F89888D998D0E944900DC010C
:102EE000CB019D8B8C8B8C899D89998B888B888954
:102EF00099890197F1F7998B888B0FC06F8D78A115
:102F000089A19AA10E944900DC01CB018E8F8E8D90
:102F10008F878F858A95F1F78F8782E063E040E0A5
:102F20000E940B1D80E090E0A0E0B0E48B879C87BE
:102F3000AD87BE876B857C858D859E8520E030E0E2
:102F40004AEF54E40E941F02DC01CB018F83988773
:102F5000A987BA876F81788589859A8520E030E0D6
:102F600040E85FE30E94250488232CF481E090E090
:102F70009E838D833FC06F81788589859A8520E007
:102F80003FEF4FE757E40E94C50318164CF56B85D9
:102F90007C858D859E8520E030E040E251E40E94F2
:102FA0001F02DC01CB01BC01CD010E944900DC0104
:102FB000CB019E838D830FC088EC90E09C838B8334
:102FC0008B819C810197F1F79C838B838D819E81FE
:102FD00001979E838D838D819E81009769F714C030
:102FE0006F81788589859A850E944900DC01CB0133
:102FF0009E838D838D819E819A83898389819A8125
:103000000197F1F79A838983C95ADF4F0FB6F89475
:10301000DEBF0FBECDBFCF91DF911F910F910895FD
:10302000DF93CF9300D000D0CDB7DEB79C838B83E6
:103030001A8219820FC029813A818B819C81FC01FF
:10304000E20FF31F80810E94AC1089819A81019662
:103050009A83898329813A818B819C81FC01E20FCB
:10306000F31F8081882339F70F900F900F900F90F6
:10307000CF91DF910895DF93CF93CDB7DEB76897F7
:103080000FB6F894DEBF0FBECDBF6D8B7E8B8F8BDE
:10309000988F8D899E899E012F5F3F4FB9014AE02D
:1030A00050E00E94462BCE0101960E9410186896AF
:1030B0000FB6F894DEBF0FBECDBFCF91DF9108955C
:1030C000DF93CF93CDB7DEB781E00E945E14CF913E
:1030D000DF910895DF93CF93CDB7DEB782E00E94F2
:1030E0005E14CF91DF910895DF93CF9300D00F92BC
:1030F000CDB7DEB78A836B8380E889838A8182308B
:1031000019F489818064898389819B81890F8983EE
:1031100089810E945E140F900F900F90CF91DF91E4
:103120000895CF92DF92EF92FF920F931F93DF9358
:10313000CF9300D0CDB7DEB781E00E947F1A9A838B
:103140008983E981FA8160E177E280E090E020E024
:1031500030E040E050E00FEF13E0EE24FF246F0179
:103160000E94B51ADC01CB019A83898389819A81F7
:103170000F900F90CF91DF911F910F91FF90EF90E3
:10318000DF90CF900895CF92DF92EF92FF920F934E
:103190001F93DF93CF9300D0CDB7DEB780E00E94BE
:1031A0007F1A9A838983E981FA8166E970E080E079
:1031B00090E022E030E040E050E00EE211E0EE244A
:1031C000FF246F010E94B51ADC01CB019A83898329
:1031D00089819A810F900F90CF91DF911F910F916C
:1031E000FF90EF90DF90CF900895DF93CF93CDB70E
:1031F000DEB72A970FB6F894DEBF0FBECDBF8A8325
:103200006B834C8319828A81282F30E03A87298783
:1032100089859A8581309105C1F029853A852330C9
:10322000310511F189859A85009769F5A7E2B0E02B
:10323000E7E2F0E080818F778C93A7E2B0E0E7E2ED
:10324000F0E080818F7B8C9320C0A7E2B0E0E7E2C2
:10325000F0E080818F778C93A7E2B0E0E7E2F0E0C6
:10326000808180648C9311C0A7E2B0E0E7E2F0E0D7
:10327000808180688C93A7E2B0E0E7E2F0E0808193
:1032800080648C9302C081E089838C81282F30E098
:1032900038872F838F819885009731F02F8138856B
:1032A0002130310549F010C0A7E2B0E0E7E2F0E0DC
:1032B00080818F7D8C930AC0A7E2B0E0E7E2F0E066
:1032C000808180628C9302C081E089838B81282F6A
:1032D00030E03E832D838D819E818430910509F4F9
:1032E0006BC02D813E81253031058CF48D819E810E
:1032F00082309105A9F12D813E81233031050CF0FA
:1033000045C08D819E8181309105A1F0ADC02D8198
:103310003E812630310509F47BC08D819E81863047
:1033200091050CF45FC02D813E812730310509F4F1
:1033300085C09AC0A6E2B0E0E6E2F0E0808181605C
:103340008C93A6E2B0E0E6E2F0E080818D7F8C9382
:10335000A6E2B0E0E6E2F0E080818B7F8C9386C04D
:10336000A6E2B0E0E6E2F0E080818E7F8C93A6E2F8
:10337000B0E0E6E2F0E0808182608C93A6E2B0E00B
:10338000E6E2F0E080818B7F8C9370C0A6E2B0E033
:10339000E6E2F0E0808181608C93A6E2B0E0E6E2B4
:1033A000F0E0808182608C93A6E2B0E0E6E2F0E09B
:1033B00080818B7F8C935AC0A6E2B0E0E6E2F0E019
:1033C00080818E7F8C93A6E2B0E0E6E2F0E080811F
:1033D0008D7F8C93A6E2B0E0E6E2F0E0808184602D
:1033E0008C9344C0A6E2B0E0E6E2F0E08081816028
:1033F0008C93A6E2B0E0E6E2F0E080818D7F8C93D2
:10340000A6E2B0E0E6E2F0E0808184608C932EC01A
:10341000A6E2B0E0E6E2F0E080818E7F8C93A6E247
:10342000B0E0E6E2F0E0808182608C93A6E2B0E05A
:10343000E6E2F0E0808184608C9318C0A6E2B0E000
:10344000E6E2F0E0808181608C93A6E2B0E0E6E203
:10345000F0E0808182608C93A6E2B0E0E6E2F0E0EA
:10346000808184608C9302C081E08983A6E2B0E011
:10347000E6E2F0E0808180688C9389812A960FB61D
:10348000F894DEBF0FBECDBFCF91DF910895DF93DB
:10349000CF93CDB7DEB7A7E2B0E0E7E2F0E08081FE
:1034A0008F778C93A7E2B0E0E7E2F0E08081806460
:1034B0008C93A7E2B0E0E7E2F0E080818F7D8C930F
:1034C000A6E2B0E0E6E2F0E0808181608C93A6E2C3
:1034D000B0E0E6E2F0E080818D7F8C93A6E2B0E080
:1034E000E6E2F0E0808184608C93A6E2B0E0E6E260
:1034F000F0E0808180688C93CF91DF910895DF9315
:10350000CF930F92CDB7DEB78983A7E2B0E0E7E2B1
:10351000F0E08081807E8C93A7E2B0E0E7E2F0E00B
:1035200090818981892B8C93A6E2B0E0E6E2F0E0FD
:10353000808180648C93E6E2F0E0808182958F70D8
:10354000882F90E0817090700097A9F3A6E2B0E018
:10355000E6E2F0E0808180618C93E4E2F0E080813B
:1035600091810F90CF91DF910895CF92DF92EF92EA
:10357000FF920F931F93DF93CF93CDB7DEB7629780
:103580000FB6F894DEBF0FBECDBF6D837E838F83F1
:10359000988729873A874B875C871E870D87F88A2B
:1035A000EF86DA8AC98A2D813E814F8158858985C7
:1035B0009A85AB85BC8579018A01E81AF90A0A0B5C
:1035C0001B0BD801C701BC01CD010E9455047B0132
:1035D0008C0129893A898F859889A901481B590B43
:1035E000CA01CC01A0E0B0E0BC01CD010E940705FA
:1035F0009B01AC01C801B7010E941F02DC01CB0195
:103600007C018D012D853E858F859889A901481BF8
:10361000590BCA01CC01A0E0B0E0BC01CD010E9471
:1036200007059B01AC01C801B7010E941903DC0129
:10363000CB017C018D0169857A858B859C850E94F3
:1036400055049B01AC01C801B7010E94F201DC01E5
:10365000CB01BC01CD0120E030E040E85FE30E94F7
:10366000F201DC01CB01BC01CD010E94B304DC01FD
:10367000CB0189839A83AB83BC8389819A81AB8197
:10368000BC81BC01CD0162960FB6F894DEBF0FBEBF
:10369000CDBFCF91DF911F910F91FF90EF90DF9001
:1036A000CF900895DF93CF93CDB7DEB7EAE3F0E094
:1036B0008CEF8083E7E3F0E08BEB8083E4E3F0E0E2
:1036C00083EC8083E1E3F0E082EF8083EBE3F0E0E2
:1036D0001082E8E3F0E084E08083E5E3F0E08CE34F
:1036E0008083E2E3F0E08CEF8083CF91DF91089557
:1036F000DF93CF9300D000D00F92CDB7DEB78A838F
:103700006B8319828B81883010F081E08983A0E57A
:10371000B0E0E0E5F0E080818B7F8C938A81282FF8
:1037200030E03D832C838C819D818230910551F165
:103730002C813D812330310534F48C819D81813091
:10374000910561F05BC02C813D812330310571F121
:103750008C819D8184309105E9F150C0ABE3B0E0EC
:10376000EBE3F0E08081482F8B81282F30E081E06F
:1037700090E0022E02C0880F991F0A94E2F7842B72
:103780008C933EC0A8E3B0E0E8E3F0E08081482FEE
:103790008B81282F30E081E090E0022E02C0880F5C
:1037A000991F0A94E2F7842B8C932AC0A5E3B0E01A
:1037B000E5E3F0E08081482F8B81282F30E081E025
:1037C00090E0022E02C0880F991F0A94E2F7842B22
:1037D0008C9316C0A2E3B0E0E2E3F0E08081482FD2
:1037E0008B81282F30E081E090E0022E02C0880F0C
:1037F000991F0A94E2F7842B8C9302C081E089839D
:1038000089810F900F900F900F900F90CF91DF91C3
:103810000895DF93CF93CDB7DEB727970FB6F8940F
:10382000DEBF0FBECDBF89836A834B838B81882324
:1038300009F075C08981282F30E03F832E838E8167
:103840009F818230910561F12E813F8123303105C6
:1038500034F48E819F818130910569F0D3C02E812F
:103860003F812330310589F18E819F81843091051C
:1038700009F440C0C7C0AAE3B0E0EAE3F0E0808109
:10388000482F8A81282F30E081E090E0022E02C08C
:10389000880F991F0A94E2F7809584238C93B2C015
:1038A000A7E3B0E0E7E3F0E08081482F8A81282F8A
:1038B00030E081E090E0022E02C0880F991F0A9448
:1038C000E2F7809584238C939DC0A4E3B0E0E4E309
:1038D000F0E08081482F8A81282F30E081E090E05D
:1038E000022E02C0880F991F0A94E2F78095842364
:1038F0008C9388C0A1E3B0E0E1E3F0E08081482F41
:103900008A81282F30E081E090E0022E02C0880FEB
:10391000991F0A94E2F7809584238C9373C08B815E
:10392000813009F06FC08981282F30E03D832C83DE
:103930008C819D818230910551F12C813D81233014
:10394000310534F48C819D818130910561F05AC03C
:103950002C813D812330310571F18C819D81843032
:103960009105E9F14FC0AAE3B0E0EAE3F0E080811D
:10397000482F8A81282F30E081E090E0022E02C09B
:10398000880F991F0A94E2F7842B8C933BC0A7E31E
:10399000B0E0E7E3F0E08081482F8A81282F30E013
:1039A00081E090E0022E02C0880F991F0A94E2F78E
:1039B000842B8C9327C0A4E3B0E0E4E3F0E08081A3
:1039C000482F8A81282F30E081E090E0022E02C04B
:1039D000880F991F0A94E2F7842B8C9313C0A1E3FC
:1039E000B0E0E1E3F0E08081482F8A81282F30E0C9
:1039F00081E090E0022E02C0880F991F0A94E2F73E
:103A0000842B8C9327960FB6F894DEBF0FBECDBFE4
:103A1000CF91DF910895DF93CF93CDB7DEB728978D
:103A20000FB6F894DEBF0FBECDBF8A836B834C8385
:103A300019828B81883010F081E089838C81882302
:103A400009F078C08A81282F30E038872F838F8152
:103A500098858230910561F12F81388523303105B9
:103A600034F48F8198858130910569F060C02F8191
:103A700038852330310589F18F819885843091050F
:103A800009F440C054C0ABE3B0E0EBE3F0E0808168
:103A9000482F8B81282F30E081E090E0022E02C079
:103AA000880F991F0A94E2F7809584238C93B8C0FD
:103AB000A8E3B0E0E8E3F0E08081482F8B81282F75
:103AC00030E081E090E0022E02C0880F991F0A9436
:103AD000E2F7809584238C93A3C0A5E3B0E0E5E3EF
:103AE000F0E08081482F8B81282F30E081E090E04A
:103AF000022E02C0880F991F0A94E2F78095842352
:103B00008C938EC0A2E3B0E0E2E3F0E08081482F26
:103B10008B81282F30E081E090E0022E02C0880FD8
:103B2000991F0A94E2F7809584238C9379C081E0F1
:103B3000898376C08C81813009F072C08A81282FF8
:103B400030E03E832D838D819E818230910551F13D
:103B50002D813E812330310534F48D819E81813069
:103B6000910561F05BC02D813E812330310571F1FB
:103B70008D819E8184309105E9F150C0ABE3B0E0C6
:103B8000EBE3F0E08081482F8B81282F30E081E04B
:103B900090E0022E02C0880F991F0A94E2F7842B4E
:103BA0008C933EC0A8E3B0E0E8E3F0E08081482FCA
:103BB0008B81282F30E081E090E0022E02C0880F38
:103BC000991F0A94E2F7842B8C932AC0A5E3B0E0F6
:103BD000E5E3F0E08081482F8B81282F30E081E001
:103BE00090E0022E02C0880F991F0A94E2F7842BFE
:103BF0008C9316C0A2E3B0E0E2E3F0E08081482FAE
:103C00008B81282F30E081E090E0022E02C0880FE7
:103C1000991F0A94E2F7842B8C9302C081E0898378
:103C2000898128960FB6F894DEBF0FBECDBFCF9125
:103C3000DF910895DF93CF93CDB7DEB727970FB607
:103C4000F894DEBF0FBECDBF8A836B835D834C8348
:103C500019828B81883010F081E089838A81282F36
:103C600030E03F832E834E815F814230510559F110
:103C70008E819F818330910534F42E813F812130E4
:103C8000310569F05CC04E815F814330510579F1A7
:103C90008E819F818430910509F43DC050C0E9E3D5
:103CA000F0E08081282F30E08B81882F90E0A901FF
:103CB00002C0559547958A95E2F7CA018170EC815B
:103CC000FD8180833EC0E6E3F0E08081282F30E074
:103CD0008B81882F90E0A90102C0559547958A9560
:103CE000E2F7CA018170EC81FD8180832AC0E3E3A1
:103CF000F0E08081282F30E08B81882F90E0A901AF
:103D000002C0559547958A95E2F7CA018170EC810A
:103D1000FD81808316C0E0E3F0E08081282F30E051
:103D20008B81882F90E0A90102C0559547958A950F
:103D3000E2F7CA018170EC81FD81808302C081E0DD
:103D40008983898127960FB6F894DEBF0FBECDBF59
:103D5000CF91DF910895DF93CF9300D000D00F92E1
:103D6000CDB7DEB78A836B8319828A81282F30E032
:103D70003D832C838C819D8182309105D9F02C81EB
:103D80003D812330310534F48C819D818130910552
:103D900061F01FC02C813D812330310581F08C8181
:103DA0009D818430910581F014C0EBE3F0E08B81BC
:103DB000808311C0E8E3F0E08B8180830CC0E5E3F1
:103DC000F0E08B81808307C0E2E3F0E08B818083A9
:103DD00002C081E0898389810F900F900F900F902E
:103DE0000F90CF91DF910895DF93CF9300D000D053
:103DF00000D0CDB7DEB78A837C836B8319828A813A
:103E0000282F30E03E832D838D819E818230910565
:103E1000E9F02D813E812330310534F48D819E817E
:103E20008130910561F027C02D813E81233031051D
:103E3000A1F08D819E8184309105B1F01CC0E9E331
:103E4000F0E08081EB81FC81808317C0E6E3F0E045
:103E50008081EB81FC81808310C0E3E3F0E080810E
:103E6000EB81FC81808309C0E0E3F0E08081EB819D
:103E7000FC81808302C081E08983898126960FB608
:103E8000F894DEBF0FBECDBFCF91DF910895DF93D1
:103E9000CF9300D000D00F92CDB7DEB78A836B836B
:103EA00019828A81282F30E03D832C838C819D816B
:103EB0008230910551F12C813D812330310534F45C
:103EC0008C819D818130910561F05BC02C813D81A9
:103ED0002330310571F18C819D8184309105E9F1A8
:103EE00050C0ABE3B0E0EBE3F0E08081482F8B8182
:103EF000282F30E081E090E0022E02C0880F991F49
:103F00000A94E2F784278C933EC0A8E3B0E0E8E38C
:103F1000F0E08081482F8B81282F30E081E090E015
:103F2000022E02C0880F991F0A94E2F784278C930F
:103F30002AC0A5E3B0E0E5E3F0E08081482F8B8163
:103F4000282F30E081E090E0022E02C0880F991FF8
:103F50000A94E2F784278C9316C0A2E3B0E0E2E370
:103F6000F0E08081482F8B81282F30E081E090E0C5
:103F7000022E02C0880F991F0A94E2F784278C93BF
:103F800002C081E0898389810F900F900F900F907C
:103F90000F90CF91DF910895DF93CF93CDB7DEB728
:103FA000AFE5B0E0EFE5F0E0808180688C93CF91E1
:103FB000DF910895DF93CF93CDB7DEB7AFE5B0E0E3
:103FC000EFE5F0E080818F778C93CF91DF910895BA
:103FD000DF93CF93CDB7DEB7ADE2B0E0EDE2F0E036
:103FE000808180618C93ADE2B0E0EDE2F0E0808111
:103FF00081608C93ADE2B0E0EDE2F0E080818D7FF6
:104000008C93AEE2B0E0EEE2F0E080818E7F8C93A4
:10401000ADE2B0E0EDE2F0E0808180628C93ADE251
:10402000B0E0EDE2F0E08081877F8C93ADE2B0E01C
:10403000EDE2F0E0808184608C93ADE2B0E0EDE2EF
:10404000F0E0808180648C93CF91DF910895DF93BD
:10405000CF930F92CDB7DEB78983EFE2F0E089818D
:104060008083EEE2F0E080818823DCF7AEE2B0E00E
:10407000EEE2F0E0808180688C93EFE2F0E08081F6
:104080000F90CF91DF910895DF93CF93CDB7DEB737
:10409000A3E5B0E0E3E5F0E080818F7B8C93A3E5BE
:1040A000B0E0E3E5F0E08081877F8C93A9E5B0E0A4
:1040B000E9E5F0E0808181608C93E2E5F0E08CE05E
:1040C0008083A3E5B0E0E3E5F0E0808181608C933C
:1040D000A3E5B0E0E3E5F0E080818D7F8C93A3E57C
:1040E000B0E0E3E5F0E0808184608C93CF91DF91D4
:1040F0000895DF93CF93CDB7DEB7A3E5B0E0E3E556
:10410000F0E080818E7F8C93A3E5B0E0E3E5F0E002
:1041100080818D7F8C93A3E5B0E0E3E5F0E08081C2
:104120008B7F8C93CF91DF910895DF93CF930F9284
:10413000CDB7DEB78983E2E5F0E0898180830F9017
:10414000CF91DF910895DF93CF930F92CDB7DEB774
:104150008983ECE5F0E0898180830F90CF91DF9136
:104160000895DF93CF9300D0CDB7DEB79A838983CC
:1041700089819A819093500280934F020F900F9003
:10418000CF91DF9108951F920F920FB60F921124D5
:104190002F933F934F935F936F937F938F939F934F
:1041A000AF93BF93EF93FF93DF93CF93CDB7DEB77A
:1041B000E0914F02F09150020995CF91DF91FF916C
:1041C000EF91BF91AF919F918F917F916F915F918F
:1041D0004F913F912F910F900FBE0F901F90189508
:1041E000DF93CF93CDB7DEB729970FB6F894DEBF34
:1041F0000FBECDBF89836A834B838981282F30E02E
:1042000039872887888599858230910509F45CC0B3
:10421000288539852330310554F4888599850097A0
:10422000C9F0288539852130310589F1C0C08885DC
:1042300099858430910509F481C028853985243019
:1042400031050CF45EC0888599858530910509F4A7
:1042500092C0ADC0AFE4B0E0EFE4F0E080818F7BCE
:104260008C93AFE4B0E0EFE4F0E080818F7E8C933C
:10427000AFE4B0E0EFE4F0E080818F778C93AFE4BF
:10428000B0E0EFE4F0E080818F7D8C9390C0AFE4EC
:10429000B0E0EFE4F0E0808180648C93AFE4B0E0C4
:1042A000EFE4F0E0808180618C93AFE4B0E0EFE474
:1042B000F0E080818F778C93AFE4B0E0EFE4F0E042
:1042C00080818F7D8C9373C0AFE4B0E0EFE4F0E0C9
:1042D000808180648C93AFE4B0E0EFE4F0E0808113
:1042E00080618C93AFE4B0E0EFE4F0E0808180681F
:1042F0008C93AFE4B0E0EFE4F0E0808180628C93D7
:1043000056C0AFE4B0E0EFE4F0E080818F7B8C93A7
:10431000AFE4B0E0EFE4F0E080818F7E8C93AFE417
:10432000B0E0EFE4F0E0808180688C93AFE4B0E02F
:10433000EFE4F0E0808180628C9339C0AFE4B0E0BC
:10434000EFE4F0E080818F7B8C93AFE4B0E0EFE4AA
:10435000F0E080818F7E8C93AFE4B0E0EFE4F0E09A
:10436000808180688C93AFE4B0E0EFE4F0E080817E
:1043700080628C931CC0AFE4B0E0EFE4F0E0808199
:1043800080648C93AFE4B0E0EFE4F0E08081806182
:104390008C93AFE4B0E0EFE4F0E0808180688C9330
:1043A000AFE4B0E0EFE4F0E0808180628C938A813A
:1043B000282F30E03F832E838E819F8182309105AC
:1043C00009F456C02E813F812330310554F48E818B
:1043D0009F81009781F12E813F812130310571F05D
:1043E0009DC08E819F818330910509F45EC02E812E
:1043F0003F812430310509F475C090C0AFE4B0E0CE
:10440000EFE4F0E080818E7F8C93AFE4B0E0EFE4E6
:10441000F0E080818D7F8C93AEE4B0E0EEE4F0E0DC
:10442000808188608C93AEE4B0E0EEE4F0E08081BF
:1044300080618C9373C0AFE4B0E0EFE4F0E0808182
:104440008E7F8C93AFE4B0E0EFE4F0E080818D7F6D
:104450008C93AEE4B0E0EEE4F0E0808188608C9371
:10446000AEE4B0E0EEE4F0E080818F7E8C9356C045
:10447000AFE4B0E0EFE4F0E080818E7F8C93AFE4B6
:10448000B0E0EFE4F0E0808182608C93AEE4B0E0D5
:10449000EEE4F0E0808188608C93AEE4B0E0EEE47E
:1044A000F0E0808180618C9339C0AFE4B0E0EFE44C
:1044B000F0E0808181608C93AFE4B0E0EFE4F0E065
:1044C000808182608C93AEE4B0E0EEE4F0E0808125
:1044D00088608C93AEE4B0E0EEE4F0E0808180612F
:1044E0008C931CC0AFE4B0E0EFE4F0E080818E7FFD
:1044F0008C93AFE4B0E0EFE4F0E080818D7F8C93AB
:10450000AEE4B0E0EEE4F0E08081877F8C93AEE42F
:10451000B0E0EEE4F0E080818F7E8C938B81282FD9
:1045200030E03D832C838C819D818130910501F1A8
:104530002C813D812230310589F18C819D8100974C
:1045400009F041C0AEE4B0E0EEE4F0E080818E7F9F
:104550008C93AEE4B0E0EEE4F0E0808182608C9376
:10456000AEE4B0E0EEE4F0E080818B7F8C932BC072
:10457000AEE4B0E0EEE4F0E0808181608C93AEE4E4
:10458000B0E0EEE4F0E0808182608C93AEE4B0E0D5
:10459000EEE4F0E080818B7F8C9315C0AEE4B0E058
:1045A000EEE4F0E080818E7F8C93AEE4B0E0EEE448
:1045B000F0E080818D7F8C93AEE4B0E0EEE4F0E03B
:1045C000808184608C9329960FB6F894DEBF0FBE6D
:1045D000CDBFCF91DF910895DF93CF9300D000D06E
:1045E0000F92CDB7DEB79A8389836B838B81282F97
:1045F00030E03D832C838C819D818230910531F0A8
:104600002C813D812330310541F00DC0E6E4F0E01E
:1046100089819A819183808306C0EAE4F0E08981F0
:104620009A81918380830F900F900F900F900F903D
:10463000CF91DF910895DF93CF9300D0CDB7DEB750
:104640009A838983EAE4F0E089819A819183808367
:104650000F900F90CF91DF910895DF93CF9300D00B
:104660000F92CDB7DEB789838981282F30E03B8355
:104670002A838A819B81009731F02A813B812130F6
:10468000310549F00FC0AEE4B0E0EEE4F0E0808127
:1046900080648C9307C0AEE4B0E0EEE4F0E080818B
:1046A0008F7B8C930F900F900F90CF91DF91089597
:1046B000DF93CF93CDB7DEB7A9E5B0E0E9E5F0E051
:1046C000808180628C93CF91DF910895DF93CF93A7
:1046D000CDB7DEB7E2E2F0E084E08083E1E2F0E033
:1046E0001082E0E2F0E082E08083A6E5B0E0E6E55B
:1046F000F0E0808184608C93CF91DF910895DF9307
:10470000CF93CDB7DEB7A6E5B0E0E6E5F0E0808177
:1047100080628C93A6E5B0E0E6E5F0E080818068F9
:104720008C93A6E5B0E0E6E5F0E0808184608C93B0
:10473000E6E5F0E080818823DCF7CF91DF910895F2
:10474000DF93CF9300D0CDB7DEB789836A838A81A8
:10475000823099F4E3E2F0E089818083A3E2B0E063
:10476000E3E2F0E08081880F8C93A3E2B0E0E3E223
:10477000F0E080818E7F8C9315C08A81813091F426
:10478000E3E2F0E089818083A3E2B0E0E3E2F0E0DD
:104790008081880F8C93A3E2B0E0E3E2F0E08081B7
:1047A00081608C93A6E5B0E0E6E5F0E080818F7D46
:1047B0008C93A6E5B0E0E6E5F0E0808180688C931C
:1047C000A6E5B0E0E6E5F0E0808184608C93E6E564
:1047D000F0E080818823DCF70F900F90CF91DF917C
:1047E0000895DF93CF930F92CDB7DEB78983E3E2CD
:1047F000F0E089818083A6E5B0E0E6E5F0E0808125
:104800008F7D8C93A6E5B0E0E6E5F0E080818068DE
:104810008C93A6E5B0E0E6E5F0E0808184608C93BF
:10482000E6E5F0E080818823DCF70F90CF91DF91FF
:104830000895DF93CF93CDB7DEB7A6E5B0E0E6E508
:10484000F0E080818F7D8C93A6E5B0E0E6E5F0E0B6
:10485000808180688C93A6E5B0E0E6E5F0E0808199
:1048600084608C93E6E5F0E080818823DCF7E3E266
:10487000F0E08081CF91DF910895DF93CF93CDB7A2
:10488000DEB7A6E5B0E0E6E5F0E0808180618C93DC
:10489000A6E5B0E0E6E5F0E0808180688C93A6E5CF
:1048A000B0E0E6E5F0E0808184608C93CF91DF9109
:1048B0000895DF93CF93CDB7DEB7E1E2F0E08081DA
:1048C000887FCF91DF910895DF93CF930F92CDB77B
:1048D000DEB71982AAE2B0E0EAE2F0E0808180610E
:1048E0008C93AAE2B0E0EAE2F0E0808188608C93E9
:1048F000898182608983898184608983AAE2B0E0AA
:10490000EAE2F0E080818B7F8C93898180688983E3
:1049100089818F7B89838981877F8983E0E4F0E0C7
:1049200089818083E9E2F0E083E380830F90CF9177
:10493000DF910895DF93CF930F92CDB7DEB78983D0
:10494000EBE2F0E08081829586958770882F90E079
:10495000817090700097A1F3ECE2F0E08981808390
:104960000F90CF91DF910895DF93CF9300D0CDB713
:10497000DEB79A8389830AC0E981FA8180810E9427
:104980009A2489819A8101969A838983E981FA819F
:104990008081882389F70F900F90CF91DF91089540
:1049A000DF93CF93CDB7DEB7EBE2F0E080818823D1
:1049B000DCF7ECE2F0E08081CF91DF910895DF93A6
:1049C000CF930F92CDB7DEB71982EBE2F0E0808192
:1049D000882314F481E0898389810F90CF91DF913E
:1049E0000895DF93CF93CDB7DEB7ECE2F0E080819E
:1049F000CF91DF910895DF93CF93CDB7DEB727979F
:104A00000FB6F894DEBF0FBECDBF9C838B837E8331
:104A10006D834F8381E08A83198218C08981282F92
:104A200030E08B819C81FC01E20FF31F4081898182
:104A3000282F30E08D819E81FC01E20FF31F8081E1
:104A4000481709F01A8289818F5F898399818F8144
:104A5000981720F38A8127960FB6F894DEBF0FBE11
:104A6000CDBFCF91DF910895DF93CF93CDB7DEB760
:104A70000E9459260E94772680914C02882319F4BF
:104A80000E942627F9CF80914C02813019F40E94B0
:104A90005229F2CF80914C02823071F380914C0206
:104AA000833019F40E949E27E7CF80914C02843016
:104AB00019F70E94BA2A882331F00E94A12A80E6C1
:104AC00090E00E94B42480913002833349F489E954
:104AD000809331020E94D72A84EA809330025AC020
:104AE00080913002843349F48AE9809331020E9434
:104AF000D72A84EA809330024DC0809130028133FE
:104B000049F48FE9809333020E94ED2A84EA80936E
:104B1000300240C080913002823349F480EA8093B1
:104B200033020E94ED2A84EA8093300233C08091E0
:104B30003002853349F481EA809334020E94F82AD6
:104B400084EA8093300226C080913002863349F493
:104B500082EA809334020E94F82A84EA8093300229
:104B600019C080913002873349F48DE98093320275
:104B70000E94E22A84EA809330020CC080913002C5
:104B8000883341F48EE9809332020E94E22A84EA5B
:104B90008093300290914B0280914A02981741F025
:104BA00080914A0280934B020E94722A0E94C72A77
:104BB000209148023091490280914602909147022B
:104BC0002817390751F0809146029091470290933F
:104BD0004902809348020E94722A80914B028731D9
:104BE00068F080913102873949F0809131028A3929
:104BF00029F087E9809331020E94D72A80914B02E5
:104C0000833168F480913102883949F08091310212
:104C1000893929F088E9809331020E94D72A80914E
:104C200048029091490223E0893E920768F0809102
:104C300032028C3949F0809132028D3929F08CE9A9
:104C4000809332020E94E22A8091480290914902A8
:104C500021E08039920708F02CCF809132028B3905
:104C600009F427CF809132028E3909F422CF8BE9E3
:104C7000809332020E94E22A1CCFDF93CF93CDB7FC
:104C8000DEB780914E028F5F80934E0280914E027C
:104C9000803261F410924E020E9491189093470264
:104CA000809346020E94C31880934A02CF91DF91FD
:104CB0000895DF93CF93CDB7DEB70E94521B0E94B9
:104CC000662381E065E040E00E94F5180E94E81F3D
:104CD0000E948E090E94CC1F0E9444208DE396E220
:104CE0000E94B1200E946424CF91DF910895DF9348
:104CF000CF93CDB7DEB72E970FB6F894DEBF0FBEB9
:104D0000CDBF84E690E00E94101882E060E00E942F
:104D1000741882E790E00E94101880E090E0AAEFFB
:104D2000B4E48B879C87AD87BE876B857C858D853A
:104D30009E8520E030E04AEF54E40E941F02DC012F
:104D4000CB018F839887A987BA876F8178858985FA
:104D50009A8520E030E040E85FE30E942504882344
:104D60002CF481E090E09E838D833FC06F81788535
:104D700089859A8520E03FEF4FE757E40E94C503FD
:104D800018164CF56B857C858D859E8520E030E07E
:104D900040E251E40E941F02DC01CB01BC01CD01C5
:104DA0000E944900DC01CB019E838D830FC088ECFB
:104DB00090E09C838B838B819C810197F1F79C838E
:104DC0008B838D819E8101979E838D838D819E81B2
:104DD000009769F714C06F81788589859A850E944C
:104DE0004900DC01CB019E838D838D819E819A8356
:104DF000898389819A810197F1F79A838983109237
:104E00004C022E960FB6F894DEBF0FBECDBFCF91E9
:104E1000DF910895DF93CF930F92CDB7DEB7109255
:104E20004D0219820E94A90889838981813321F466
:104E300081E080934C0206C08981833399F783E037
:104E400080934C020F90CF91DF910895DF93CF9321
:104E5000CDB7DEB70E94601880E060E00E94741851
:104E600080E890E00E94101882E060E00E947418D0
:104E700080E990E00E9410180E940A27CF91DF91EC
:104E80000895DF93CF9300D000D00F92CDB7DEB757
:104E90009D838C831A8281E089830E94A9088B8379
:104EA0008B818823D1F38A818370982F9A5F8981BF
:104EB000692F0E9474188B810E94AC108A81282F60
:104EC00030E08C819D81FC01E20FF31F8B81808398
:104ED0001B828A818F5F8A838A81843011F482E009
:104EE00089838A818830C9F68A81282F30E08C81B5
:104EF0009D81FC01E20FF31F10820F900F900F9025
:104F00000F900F90CF91DF910895DF93CF93CDB79E
:104F1000DEB70E94601880E060E00E94741881EAA9
:104F200090E00E94101882E060E00E94741887EA06
:104F300090E00E941018CF91DF910895DF93CF93F6
:104F4000CDB7DEB7AE970FB6F894DEBF0FBECDBFBC
:104F50000E9485278DEA90E09EA78DA786EB90E0C2
:104F60009CA78BA78BA59CA50E9441272DA53EA59C
:104F700080E560E048E00E9467088DA59EA52BA50E
:104F80003CA5B90148E00E94FB24882309F47FC0B6
:104F90000E9460188FEB90E00E94101880E090E86B
:104FA000ABEBB4E48FA398A7A9A7BAA76FA178A584
:104FB00089A59AA520E030E04AEF54E40E941F0240
:104FC000DC01CB018BA39CA3ADA3BEA36BA17CA1F1
:104FD0008DA19EA120E030E040E85FE30E9425041F
:104FE00088232CF481E090E09AA389A33FC06BA1B1
:104FF0007CA18DA19EA120E03FEF4FE757E40E94E6
:10500000C50318164CF56FA178A589A59AA520E0CF
:1050100030E040E251E40E941F02DC01CB01BC0100
:10502000CD010E944900DC01CB019AA389A30FC0E6
:1050300088EC90E098A38F8F8F8D98A10197F1F75E
:1050400098A38F8F89A19AA101979AA389A389A177
:105050009AA1009769F714C06BA17CA18DA19EA1B4
:105060000E944900DC01CB019AA389A389A19AA1DE
:105070009E8F8D8F8D8D9E8D0197F1F79E8F8D8FD9
:1050800084E080934C0283EA0E94272002C10E94A0
:10509000601889EC90E00E94101880E090E8ABEB7B
:1050A000B4E4898F9A8FAB8FBC8F698D7A8D8B8D8D
:1050B0009C8D20E030E04AEF54E40E941F02DC01A6
:1050C000CB018D8B9E8BAF8BB88F6D897E898F893D
:1050D000988D20E030E040E85FE30E9425048823BB
:1050E0002CF481E090E09C8B8B8B3FC06D897E8996
:1050F0008F89988D20E03FEF4FE757E40E94C5036A
:1051000018164CF5698D7A8D8B8D9C8D20E030E0E2
:1051100040E251E40E941F02DC01CB01BC01CD0141
:105120000E944900DC01CB019C8B8B8B0FC088EC6B
:1051300090E09A8B898B89899A890197F1F79A8BEC
:10514000898B8B899C8901979C8B8B8B8B899C8904
:10515000009769F714C06D897E898F89988D0E94A8
:105160004900DC01CB019C8B8B8B8B899C89988BB4
:105170008F878F8598890197F1F7988B8F8782E0C9
:1051800060E00E94741884ED90E00E94101880E0A6
:1051900090E8ABEBB4E48B879C87AD87BE876B85CB
:1051A0007C858D859E8520E030E04AEF54E40E94A6
:1051B0001F02DC01CB018F839887A987BA876F8193
:1051C000788589859A8520E030E040E85FE30E9499
:1051D000250488232CF481E090E09E838D833FC0DA
:1051E0006F81788589859A8520E03FEF4FE757E406
:1051F0000E94C50318164CF56B857C858D859E85B0
:1052000020E030E040E251E40E941F02DC01CB01CB
:10521000BC01CD010E944900DC01CB019E838D833E
:105220000FC088EC90E09C838B838B819C810197DD
:10523000F1F79C838B838D819E8101979E838D8363
:105240008D819E81009769F714C06F81788589856B
:105250009A850E944900DC01CB019E838D838D815C
:105260009E819A83898389819A810197F1F79A8334
:10527000898380914D028F5F80934D0283E08093FC
:105280004C0280914D02833021F410924D02109215
:105290004C02AE960FB6F894DEBF0FBECDBFCF91D5
:1052A000DF910895DF93CF93CDB7DEB76E970FB63A
:1052B000F894DEBF0FBECDBF0E9485278DEA90E037
:1052C0009E8F8D8F8D8D9E8D0E9441278D8D9E8D01
:1052D00068E040E520E00E94B9070E94601882EE75
:1052E00090E00E94101880E090E8ABEBB4E4898F66
:1052F0009A8FAB8FBC8F698D7A8D8B8D9C8D20E0C2
:1053000030E04AEF54E40E941F02DC01CB018D8B98
:105310009E8BAF8BB88F6D897E898F89988D20E0A9
:1053200030E040E85FE30E94250488232CF481E00C
:1053300090E09C8B8B8B3FC06D897E898F89988D87
:1053400020E03FEF4FE757E40E94C50318164CF5E5
:10535000698D7A8D8B8D9C8D20E030E040E251E4A8
:105360000E941F02DC01CB01BC01CD010E9449005B
:10537000DC01CB019C8B8B8B0FC088EC90E09A8B6F
:10538000898B89899A890197F1F79A8B898B8B8907
:105390009C8901979C8B8B8B8B899C89009769F7E3
:1053A00014C06D897E898F89988D0E944900DC0127
:1053B000CB019C8B8B8B8B899C89988B8F878F855E
:1053C00098890197F1F7988B8F8780E060E00E94C1
:1053D000741883EF90E00E94101882E060E00E9451
:1053E000741884E091E00E94101880E090E8ABEB24
:1053F000B4E48B879C87AD87BE876B857C858D8564
:105400009E8520E030E04AEF54E40E941F02DC0158
:10541000CB018F839887A987BA876F817885898523
:105420009A8520E030E040E85FE30E94250488236D
:105430002CF481E090E09E838D833FC06F8178855E
:1054400089859A8520E03FEF4FE757E40E94C50326
:1054500018164CF56B857C858D859E8520E030E0A7
:1054600040E251E40E941F02DC01CB01BC01CD01EE
:105470000E944900DC01CB019E838D830FC088EC24
:1054800090E09C838B838B819C810197F1F79C83B7
:105490008B838D819E8101979E838D838D819E81DB
:1054A000009769F714C06F81788589859A850E9475
:1054B0004900DC01CB019E838D838D819E819A837F
:1054C000898389819A810197F1F79A8389830E9460
:1054D0009E276E960FB6F894DEBF0FBECDBFCF915C
:1054E000DF910895DF93CF93CDB7DEB70E946018A8
:1054F00085E191E00E94101880914B0294E6692F9B
:105500000E94032B892F882F90E0A0E0B0E0BC011F
:10551000CD010E943B1882E060E00E94741881E295
:1055200091E00E9410188091480290914902CC01AC
:10553000A0E0B0E0BC01CD010E943B18CF91DF910B
:105540000895DF93CF93CDB7DEB70E94D024809328
:10555000300282E06DE00E94741880913002882F42
:1055600090E0A0E0B0E0BC01CD010E943B18CF91DB
:10557000DF910895DF93CF930F92CDB7DEB70E94EE
:10558000DF24898389810F90CF91DF910895DF9384
:10559000CF93CDB7DEB780914B0297E9692F0E9478
:1055A000032B892F0E942720CF91DF910895DF934D
:1055B000CF93CDB7DEB7809131020E942720CF91E3
:1055C000DF910895DF93CF93CDB7DEB7809132029C
:1055D0000E942720CF91DF910895DF93CF93CDB71D
:1055E000DEB7809133020E942720CF91DF9108958A
:1055F000DF93CF93CDB7DEB7809134020E9427208E
:10560000CF91DF910895991B79E004C0991F9617F7
:1056100008F0961B881F7A95C9F7809508952F92F8
:105620003F924F925F926F927F928F929F92AF9232
:10563000BF92CF92DF92EF92FF920F931F93CF937F
:10564000DF93CDB7DEB7CA1BDB0B0FB6F894DEBF16
:105650000FBECDBF09942A88398848885F846E843C
:105660007D848C849B84AA84B984C884DF80EE8086
:10567000FD800C811B81AA81B981CE0FD11D0FB68F
:10568000F894DEBF0FBECDBFED010895FB019F0171
:10569000E8944230C4F04532B4F44A3029F497FB20
:1056A0001EF4909581959F4F642F77270E94772B4A
:1056B000805D8A330CF0895D8193CB010097A1F75F
:1056C00016F45DE251931082C9010C94672BDC0142
:1056D000FC01672F71917723E1F7329704C07C9129
:1056E0006D9370836291AE17BF07C8F30895AA1B2C
:1056F000BB1B51E107C0AA1FBB1FA617B70710F0BD
:10570000A61BB70B881F991F5A95A9F780959095EE
:0A571000BC01CD010895F894FFCF0D
:10571A00414D720020202057656C636F6D652074BF
:10572A006F00202020536D61727420486F6D6500F0
:10573A0020313A616464206E657720757365720062
:10574A00323A6564697455737220333A6F70656EC4
:10575A00004E616D653A00506173733A004E414DD7
:10576A00455041535300416D723030303030002083
:10577A002020202052474854002020202020577201
:10578A006F6E67002020202054727920416761697A
:10579A006E002020446F6E6520456E7472696E67D4
:1057AA002020002020206E6F7720656E746572209D
:1057BA0020202000204E616D6520616E64205061BA
:1057CA00737320200054656D707261747572653A46
:1057DA00004C756D656E3A00000000000000000084
:1057EA00000102020303030304040404040404047E
:1057FA00050505050505050505050505050505054F
:10580A00060606060606060606060606060606062E
:10581A00060606060606060606060606060606061E
:10582A0007070707070707070707070707070707FE
:10583A0007070707070707070707070707070707EE
:10584A0007070707070707070707070707070707DE
:10585A0007070707070707070707070707070707CE
:10586A0008080808080808080808080808080808AE
:10587A00080808080808080808080808080808089E
:10588A00080808080808080808080808080808088E
:10589A00080808080808080808080808080808087E
:1058AA00080808080808080808080808080808086E
:1058BA00080808080808080808080808080808085E
:1058CA00080808080808080808080808080808084E
:1058DA00080808080808080808080808080808083E
:1058EA00A4989CA0A223303D2B3132332D34353677
:0658FA002A3738392F00A7
:00000001FF
